{"abi":[{"inputs":[{"internalType":"string","name":"_title","type":"string"},{"internalType":"string","name":"_category","type":"string"},{"internalType":"string","name":"_organizerName","type":"string"}],"stateMutability":"nonpayable","type":"constructor"},{"inputs":[],"name":"category","outputs":[{"internalType":"string","name":"","type":"string"}],"stateMutability":"view","type":"function"},{"inputs":[{"internalType":"uint256","name":"","type":"uint256"}],"name":"donations","outputs":[{"internalType":"uint256","name":"amount","type":"uint256"},{"internalType":"uint256","name":"timestamp","type":"uint256"},{"internalType":"string","name":"purpose","type":"string"}],"stateMutability":"view","type":"function"},{"inputs":[{"internalType":"uint256","name":"index","type":"uint256"}],"name":"getDonation","outputs":[{"internalType":"uint256","name":"amount","type":"uint256"},{"internalType":"uint256","name":"timestamp","type":"uint256"},{"internalType":"string","name":"purpose","type":"string"}],"stateMutability":"view","type":"function"},{"inputs":[],"name":"getDonationCount","outputs":[{"internalType":"uint256","name":"","type":"uint256"}],"stateMutability":"view","type":"function"},{"inputs":[{"internalType":"uint256","name":"index","type":"uint256"}],"name":"getSpending","outputs":[{"internalType":"string","name":"description","type":"string"},{"internalType":"uint256","name":"amount","type":"uint256"},{"internalType":"uint256","name":"timestamp","type":"uint256"},{"internalType":"string","name":"receiptHash","type":"string"}],"stateMutability":"view","type":"function"},{"inputs":[],"name":"getSpendingCount","outputs":[{"internalType":"uint256","name":"","type":"uint256"}],"stateMutability":"view","type":"function"},{"inputs":[{"internalType":"string","name":"_description","type":"string"},{"internalType":"uint256","name":"_amount","type":"uint256"},{"internalType":"string","name":"_receiptHash","type":"string"}],"name":"logSpending","outputs":[],"stateMutability":"nonpayable","type":"function"},{"inputs":[],"name":"organizerName","outputs":[{"internalType":"string","name":"","type":"string"}],"stateMutability":"view","type":"function"},{"inputs":[{"internalType":"uint256","name":"_amount","type":"uint256"},{"internalType":"string","name":"_purpose","type":"string"}],"name":"recordDonation","outputs":[],"stateMutability":"nonpayable","type":"function"},{"inputs":[{"internalType":"uint256","name":"","type":"uint256"}],"name":"spendings","outputs":[{"internalType":"string","name":"description","type":"string"},{"internalType":"uint256","name":"amount","type":"uint256"},{"internalType":"uint256","name":"timestamp","type":"uint256"},{"internalType":"string","name":"receiptHash","type":"string"}],"stateMutability":"view","type":"function"},{"inputs":[],"name":"title","outputs":[{"internalType":"string","name":"","type":"string"}],"stateMutability":"view","type":"function"},{"inputs":[],"name":"totalDonated","outputs":[{"internalType":"uint256","name":"","type":"uint256"}],"stateMutability":"view","type":"function"},{"inputs":[],"name":"totalSpent","outputs":[{"internalType":"uint256","name":"","type":"uint256"}],"stateMutability":"view","type":"function"}],"devdoc":{"kind":"dev","methods":{},"title":"DonationCampaign - Records donations and spending for a single campaign","version":1},"evm":{"assembly":"    /* \"Donation.sol\":869:3424  contract DonationCampaign {... */\n  mstore(0x40, 0x80)\n    /* \"Donation.sol\":1546:1774  constructor(... */\n  callvalue\n  dup1\n  iszero\n  tag_1\n  jumpi\n  0x00\n  dup1\n  revert\ntag_1:\n  pop\n  mload(0x40)\n  sub(codesize, bytecodeSize)\n  dup1\n  bytecodeSize\n  dup4\n  codecopy\n  dup2\n  dup2\n  add\n  0x40\n  mstore\n  dup2\n  add\n  swap1\n  tag_2\n  swap2\n  swap1\n  tag_3\n  jump\t// in\ntag_2:\n    /* \"Donation.sol\":1688:1694  _title */\n  dup3\n    /* \"Donation.sol\":1680:1685  title */\n  0x00\n    /* \"Donation.sol\":1680:1694  title = _title */\n  swap1\n  dup1\n  mload\n  swap1\n  0x20\n  add\n  swap1\n  tag_6\n  swap3\n  swap2\n  swap1\n  tag_7\n  jump\t// in\ntag_6:\n  pop\n    /* \"Donation.sol\":1716:1725  _category */\n  dup2\n    /* \"Donation.sol\":1705:1713  category */\n  0x01\n    /* \"Donation.sol\":1705:1725  category = _category */\n  swap1\n  dup1\n  mload\n  swap1\n  0x20\n  add\n  swap1\n  tag_8\n  swap3\n  swap2\n  swap1\n  tag_7\n  jump\t// in\ntag_8:\n  pop\n    /* \"Donation.sol\":1752:1766  _organizerName */\n  dup1\n    /* \"Donation.sol\":1736:1749  organizerName */\n  0x02\n    /* \"Donation.sol\":1736:1766  organizerName = _organizerName */\n  swap1\n  dup1\n  mload\n  swap1\n  0x20\n  add\n  swap1\n  tag_9\n  swap3\n  swap2\n  swap1\n  tag_7\n  jump\t// in\ntag_9:\n  pop\n    /* \"Donation.sol\":1546:1774  constructor(... */\n  pop\n  pop\n  pop\n    /* \"Donation.sol\":869:3424  contract DonationCampaign {... */\n  jump(tag_10)\ntag_7:\n  dup3\n  dup1\n  sload\n  tag_11\n  swap1\n  tag_12\n  jump\t// in\ntag_11:\n  swap1\n  0x00\n  mstore\n  keccak256(0x00, 0x20)\n  swap1\n  0x1f\n  add\n  0x20\n  swap1\n  div\n  dup2\n  add\n  swap3\n  dup3\n  tag_14\n  jumpi\n  0x00\n  dup6\n  sstore\n  jump(tag_13)\ntag_14:\n  dup3\n  0x1f\n  lt\n  tag_15\n  jumpi\n  dup1\n  mload\n  not(0xff)\n  and\n  dup4\n  dup1\n  add\n  or\n  dup6\n  sstore\n  jump(tag_13)\ntag_15:\n  dup3\n  dup1\n  add\n  0x01\n  add\n  dup6\n  sstore\n  dup3\n  iszero\n  tag_13\n  jumpi\n  swap2\n  dup3\n  add\ntag_16:\n  dup3\n  dup2\n  gt\n  iszero\n  tag_17\n  jumpi\n  dup3\n  mload\n  dup3\n  sstore\n  swap2\n  0x20\n  add\n  swap2\n  swap1\n  0x01\n  add\n  swap1\n  jump(tag_16)\ntag_17:\ntag_13:\n  pop\n  swap1\n  pop\n  tag_18\n  swap2\n  swap1\n  tag_19\n  jump\t// in\ntag_18:\n  pop\n  swap1\n  jump\t// out\ntag_19:\ntag_20:\n  dup1\n  dup3\n  gt\n  iszero\n  tag_21\n  jumpi\n  0x00\n  dup2\n  0x00\n  swap1\n  sstore\n  pop\n  0x01\n  add\n  jump(tag_20)\ntag_21:\n  pop\n  swap1\n  jump\t// out\n    /* \"#utility.yul\":7:82   */\ntag_22:\n    /* \"#utility.yul\":40:46   */\n  0x00\n    /* \"#utility.yul\":73:75   */\n  0x40\n    /* \"#utility.yul\":67:76   */\n  mload\n    /* \"#utility.yul\":57:76   */\n  swap1\n  pop\n    /* \"#utility.yul\":7:82   */\n  swap1\n  jump\t// out\n    /* \"#utility.yul\":88:205   */\ntag_23:\n    /* \"#utility.yul\":197:198   */\n  0x00\n    /* \"#utility.yul\":194:195   */\n  dup1\n    /* \"#utility.yul\":187:199   */\n  revert\n    /* \"#utility.yul\":211:328   */\ntag_24:\n    /* \"#utility.yul\":320:321   */\n  0x00\n    /* \"#utility.yul\":317:318   */\n  dup1\n    /* \"#utility.yul\":310:322   */\n  revert\n    /* \"#utility.yul\":334:451   */\ntag_25:\n    /* \"#utility.yul\":443:444   */\n  0x00\n    /* \"#utility.yul\":440:441   */\n  dup1\n    /* \"#utility.yul\":433:445   */\n  revert\n    /* \"#utility.yul\":457:574   */\ntag_26:\n    /* \"#utility.yul\":566:567   */\n  0x00\n    /* \"#utility.yul\":563:564   */\n  dup1\n    /* \"#utility.yul\":556:568   */\n  revert\n    /* \"#utility.yul\":580:682   */\ntag_27:\n    /* \"#utility.yul\":621:627   */\n  0x00\n    /* \"#utility.yul\":672:674   */\n  0x1f\n    /* \"#utility.yul\":668:675   */\n  not\n    /* \"#utility.yul\":663:665   */\n  0x1f\n    /* \"#utility.yul\":656:661   */\n  dup4\n    /* \"#utility.yul\":652:666   */\n  add\n    /* \"#utility.yul\":648:676   */\n  and\n    /* \"#utility.yul\":638:676   */\n  swap1\n  pop\n    /* \"#utility.yul\":580:682   */\n  swap2\n  swap1\n  pop\n  jump\t// out\n    /* \"#utility.yul\":688:868   */\ntag_28:\n    /* \"#utility.yul\":736:813   */\n  0x4e487b7100000000000000000000000000000000000000000000000000000000\n    /* \"#utility.yul\":733:734   */\n  0x00\n    /* \"#utility.yul\":726:814   */\n  mstore\n    /* \"#utility.yul\":833:837   */\n  0x41\n    /* \"#utility.yul\":830:831   */\n  0x04\n    /* \"#utility.yul\":823:838   */\n  mstore\n    /* \"#utility.yul\":857:861   */\n  0x24\n    /* \"#utility.yul\":854:855   */\n  0x00\n    /* \"#utility.yul\":847:862   */\n  revert\n    /* \"#utility.yul\":874:1155   */\ntag_29:\n    /* \"#utility.yul\":957:984   */\n  tag_45\n    /* \"#utility.yul\":979:983   */\n  dup3\n    /* \"#utility.yul\":957:984   */\n  tag_27\n  jump\t// in\ntag_45:\n    /* \"#utility.yul\":949:955   */\n  dup2\n    /* \"#utility.yul\":945:985   */\n  add\n    /* \"#utility.yul\":1087:1093   */\n  dup2\n    /* \"#utility.yul\":1075:1085   */\n  dup2\n    /* \"#utility.yul\":1072:1094   */\n  lt\n    /* \"#utility.yul\":1051:1069   */\n  0xffffffffffffffff\n    /* \"#utility.yul\":1039:1049   */\n  dup3\n    /* \"#utility.yul\":1036:1070   */\n  gt\n    /* \"#utility.yul\":1033:1095   */\n  or\n    /* \"#utility.yul\":1030:1118   */\n  iszero\n  tag_46\n  jumpi\n    /* \"#utility.yul\":1098:1116   */\n  tag_47\n  tag_28\n  jump\t// in\ntag_47:\n    /* \"#utility.yul\":1030:1118   */\ntag_46:\n    /* \"#utility.yul\":1138:1148   */\n  dup1\n    /* \"#utility.yul\":1134:1136   */\n  0x40\n    /* \"#utility.yul\":1127:1149   */\n  mstore\n    /* \"#utility.yul\":917:1155   */\n  pop\n    /* \"#utility.yul\":874:1155   */\n  pop\n  pop\n  jump\t// out\n    /* \"#utility.yul\":1161:1290   */\ntag_30:\n    /* \"#utility.yul\":1195:1201   */\n  0x00\n    /* \"#utility.yul\":1222:1242   */\n  tag_49\n  tag_22\n  jump\t// in\ntag_49:\n    /* \"#utility.yul\":1212:1242   */\n  swap1\n  pop\n    /* \"#utility.yul\":1251:1284   */\n  tag_50\n    /* \"#utility.yul\":1279:1283   */\n  dup3\n    /* \"#utility.yul\":1271:1277   */\n  dup3\n    /* \"#utility.yul\":1251:1284   */\n  tag_29\n  jump\t// in\ntag_50:\n    /* \"#utility.yul\":1161:1290   */\n  swap2\n  swap1\n  pop\n  jump\t// out\n    /* \"#utility.yul\":1296:1604   */\ntag_31:\n    /* \"#utility.yul\":1358:1362   */\n  0x00\n    /* \"#utility.yul\":1448:1466   */\n  0xffffffffffffffff\n    /* \"#utility.yul\":1440:1446   */\n  dup3\n    /* \"#utility.yul\":1437:1467   */\n  gt\n    /* \"#utility.yul\":1434:1490   */\n  iszero\n  tag_52\n  jumpi\n    /* \"#utility.yul\":1470:1488   */\n  tag_53\n  tag_28\n  jump\t// in\ntag_53:\n    /* \"#utility.yul\":1434:1490   */\ntag_52:\n    /* \"#utility.yul\":1508:1537   */\n  tag_54\n    /* \"#utility.yul\":1530:1536   */\n  dup3\n    /* \"#utility.yul\":1508:1537   */\n  tag_27\n  jump\t// in\ntag_54:\n    /* \"#utility.yul\":1500:1537   */\n  swap1\n  pop\n    /* \"#utility.yul\":1592:1596   */\n  0x20\n    /* \"#utility.yul\":1586:1590   */\n  dup2\n    /* \"#utility.yul\":1582:1597   */\n  add\n    /* \"#utility.yul\":1574:1597   */\n  swap1\n  pop\n    /* \"#utility.yul\":1296:1604   */\n  swap2\n  swap1\n  pop\n  jump\t// out\n    /* \"#utility.yul\":1610:1917   */\ntag_32:\n    /* \"#utility.yul\":1678:1679   */\n  0x00\n    /* \"#utility.yul\":1688:1801   */\ntag_56:\n    /* \"#utility.yul\":1702:1708   */\n  dup4\n    /* \"#utility.yul\":1699:1700   */\n  dup2\n    /* \"#utility.yul\":1696:1709   */\n  lt\n    /* \"#utility.yul\":1688:1801   */\n  iszero\n  tag_58\n  jumpi\n    /* \"#utility.yul\":1787:1788   */\n  dup1\n    /* \"#utility.yul\":1782:1785   */\n  dup3\n    /* \"#utility.yul\":1778:1789   */\n  add\n    /* \"#utility.yul\":1772:1790   */\n  mload\n    /* \"#utility.yul\":1768:1769   */\n  dup2\n    /* \"#utility.yul\":1763:1766   */\n  dup5\n    /* \"#utility.yul\":1759:1770   */\n  add\n    /* \"#utility.yul\":1752:1791   */\n  mstore\n    /* \"#utility.yul\":1724:1726   */\n  0x20\n    /* \"#utility.yul\":1721:1722   */\n  dup2\n    /* \"#utility.yul\":1717:1727   */\n  add\n    /* \"#utility.yul\":1712:1727   */\n  swap1\n  pop\n    /* \"#utility.yul\":1688:1801   */\n  jump(tag_56)\ntag_58:\n    /* \"#utility.yul\":1819:1825   */\n  dup4\n    /* \"#utility.yul\":1816:1817   */\n  dup2\n    /* \"#utility.yul\":1813:1826   */\n  gt\n    /* \"#utility.yul\":1810:1911   */\n  iszero\n  tag_59\n  jumpi\n    /* \"#utility.yul\":1899:1900   */\n  0x00\n    /* \"#utility.yul\":1890:1896   */\n  dup5\n    /* \"#utility.yul\":1885:1888   */\n  dup5\n    /* \"#utility.yul\":1881:1897   */\n  add\n    /* \"#utility.yul\":1874:1901   */\n  mstore\n    /* \"#utility.yul\":1810:1911   */\ntag_59:\n    /* \"#utility.yul\":1659:1917   */\n  pop\n    /* \"#utility.yul\":1610:1917   */\n  pop\n  pop\n  pop\n  jump\t// out\n    /* \"#utility.yul\":1923:2344   */\ntag_33:\n    /* \"#utility.yul\":2012:2017   */\n  0x00\n    /* \"#utility.yul\":2037:2103   */\n  tag_61\n    /* \"#utility.yul\":2053:2102   */\n  tag_62\n    /* \"#utility.yul\":2095:2101   */\n  dup5\n    /* \"#utility.yul\":2053:2102   */\n  tag_31\n  jump\t// in\ntag_62:\n    /* \"#utility.yul\":2037:2103   */\n  tag_30\n  jump\t// in\ntag_61:\n    /* \"#utility.yul\":2028:2103   */\n  swap1\n  pop\n    /* \"#utility.yul\":2126:2132   */\n  dup3\n    /* \"#utility.yul\":2119:2124   */\n  dup2\n    /* \"#utility.yul\":2112:2133   */\n  mstore\n    /* \"#utility.yul\":2164:2168   */\n  0x20\n    /* \"#utility.yul\":2157:2162   */\n  dup2\n    /* \"#utility.yul\":2153:2169   */\n  add\n    /* \"#utility.yul\":2202:2205   */\n  dup5\n    /* \"#utility.yul\":2193:2199   */\n  dup5\n    /* \"#utility.yul\":2188:2191   */\n  dup5\n    /* \"#utility.yul\":2184:2200   */\n  add\n    /* \"#utility.yul\":2181:2206   */\n  gt\n    /* \"#utility.yul\":2178:2290   */\n  iszero\n  tag_63\n  jumpi\n    /* \"#utility.yul\":2209:2288   */\n  tag_64\n  tag_26\n  jump\t// in\ntag_64:\n    /* \"#utility.yul\":2178:2290   */\ntag_63:\n    /* \"#utility.yul\":2299:2338   */\n  tag_65\n    /* \"#utility.yul\":2331:2337   */\n  dup5\n    /* \"#utility.yul\":2326:2329   */\n  dup3\n    /* \"#utility.yul\":2321:2324   */\n  dup6\n    /* \"#utility.yul\":2299:2338   */\n  tag_32\n  jump\t// in\ntag_65:\n    /* \"#utility.yul\":2018:2344   */\n  pop\n    /* \"#utility.yul\":1923:2344   */\n  swap4\n  swap3\n  pop\n  pop\n  pop\n  jump\t// out\n    /* \"#utility.yul\":2364:2719   */\ntag_34:\n    /* \"#utility.yul\":2431:2436   */\n  0x00\n    /* \"#utility.yul\":2480:2483   */\n  dup3\n    /* \"#utility.yul\":2473:2477   */\n  0x1f\n    /* \"#utility.yul\":2465:2471   */\n  dup4\n    /* \"#utility.yul\":2461:2478   */\n  add\n    /* \"#utility.yul\":2457:2484   */\n  slt\n    /* \"#utility.yul\":2447:2569   */\n  tag_67\n  jumpi\n    /* \"#utility.yul\":2488:2567   */\n  tag_68\n  tag_25\n  jump\t// in\ntag_68:\n    /* \"#utility.yul\":2447:2569   */\ntag_67:\n    /* \"#utility.yul\":2598:2604   */\n  dup2\n    /* \"#utility.yul\":2592:2605   */\n  mload\n    /* \"#utility.yul\":2623:2713   */\n  tag_69\n    /* \"#utility.yul\":2709:2712   */\n  dup5\n    /* \"#utility.yul\":2701:2707   */\n  dup3\n    /* \"#utility.yul\":2694:2698   */\n  0x20\n    /* \"#utility.yul\":2686:2692   */\n  dup7\n    /* \"#utility.yul\":2682:2699   */\n  add\n    /* \"#utility.yul\":2623:2713   */\n  tag_33\n  jump\t// in\ntag_69:\n    /* \"#utility.yul\":2614:2713   */\n  swap2\n  pop\n    /* \"#utility.yul\":2437:2719   */\n  pop\n    /* \"#utility.yul\":2364:2719   */\n  swap3\n  swap2\n  pop\n  pop\n  jump\t// out\n    /* \"#utility.yul\":2725:3907   */\ntag_3:\n    /* \"#utility.yul\":2843:2849   */\n  0x00\n    /* \"#utility.yul\":2851:2857   */\n  dup1\n    /* \"#utility.yul\":2859:2865   */\n  0x00\n    /* \"#utility.yul\":2908:2910   */\n  0x60\n    /* \"#utility.yul\":2896:2905   */\n  dup5\n    /* \"#utility.yul\":2887:2894   */\n  dup7\n    /* \"#utility.yul\":2883:2906   */\n  sub\n    /* \"#utility.yul\":2879:2911   */\n  slt\n    /* \"#utility.yul\":2876:2995   */\n  iszero\n  tag_71\n  jumpi\n    /* \"#utility.yul\":2914:2993   */\n  tag_72\n  tag_23\n  jump\t// in\ntag_72:\n    /* \"#utility.yul\":2876:2995   */\ntag_71:\n    /* \"#utility.yul\":3055:3056   */\n  0x00\n    /* \"#utility.yul\":3044:3053   */\n  dup5\n    /* \"#utility.yul\":3040:3057   */\n  add\n    /* \"#utility.yul\":3034:3058   */\n  mload\n    /* \"#utility.yul\":3085:3103   */\n  0xffffffffffffffff\n    /* \"#utility.yul\":3077:3083   */\n  dup2\n    /* \"#utility.yul\":3074:3104   */\n  gt\n    /* \"#utility.yul\":3071:3188   */\n  iszero\n  tag_73\n  jumpi\n    /* \"#utility.yul\":3107:3186   */\n  tag_74\n  tag_24\n  jump\t// in\ntag_74:\n    /* \"#utility.yul\":3071:3188   */\ntag_73:\n    /* \"#utility.yul\":3212:3286   */\n  tag_75\n    /* \"#utility.yul\":3278:3285   */\n  dup7\n    /* \"#utility.yul\":3269:3275   */\n  dup3\n    /* \"#utility.yul\":3258:3267   */\n  dup8\n    /* \"#utility.yul\":3254:3276   */\n  add\n    /* \"#utility.yul\":3212:3286   */\n  tag_34\n  jump\t// in\ntag_75:\n    /* \"#utility.yul\":3202:3286   */\n  swap4\n  pop\n    /* \"#utility.yul\":3005:3296   */\n  pop\n    /* \"#utility.yul\":3356:3358   */\n  0x20\n    /* \"#utility.yul\":3345:3354   */\n  dup5\n    /* \"#utility.yul\":3341:3359   */\n  add\n    /* \"#utility.yul\":3335:3360   */\n  mload\n    /* \"#utility.yul\":3387:3405   */\n  0xffffffffffffffff\n    /* \"#utility.yul\":3379:3385   */\n  dup2\n    /* \"#utility.yul\":3376:3406   */\n  gt\n    /* \"#utility.yul\":3373:3490   */\n  iszero\n  tag_76\n  jumpi\n    /* \"#utility.yul\":3409:3488   */\n  tag_77\n  tag_24\n  jump\t// in\ntag_77:\n    /* \"#utility.yul\":3373:3490   */\ntag_76:\n    /* \"#utility.yul\":3514:3588   */\n  tag_78\n    /* \"#utility.yul\":3580:3587   */\n  dup7\n    /* \"#utility.yul\":3571:3577   */\n  dup3\n    /* \"#utility.yul\":3560:3569   */\n  dup8\n    /* \"#utility.yul\":3556:3578   */\n  add\n    /* \"#utility.yul\":3514:3588   */\n  tag_34\n  jump\t// in\ntag_78:\n    /* \"#utility.yul\":3504:3588   */\n  swap3\n  pop\n    /* \"#utility.yul\":3306:3598   */\n  pop\n    /* \"#utility.yul\":3658:3660   */\n  0x40\n    /* \"#utility.yul\":3647:3656   */\n  dup5\n    /* \"#utility.yul\":3643:3661   */\n  add\n    /* \"#utility.yul\":3637:3662   */\n  mload\n    /* \"#utility.yul\":3689:3707   */\n  0xffffffffffffffff\n    /* \"#utility.yul\":3681:3687   */\n  dup2\n    /* \"#utility.yul\":3678:3708   */\n  gt\n    /* \"#utility.yul\":3675:3792   */\n  iszero\n  tag_79\n  jumpi\n    /* \"#utility.yul\":3711:3790   */\n  tag_80\n  tag_24\n  jump\t// in\ntag_80:\n    /* \"#utility.yul\":3675:3792   */\ntag_79:\n    /* \"#utility.yul\":3816:3890   */\n  tag_81\n    /* \"#utility.yul\":3882:3889   */\n  dup7\n    /* \"#utility.yul\":3873:3879   */\n  dup3\n    /* \"#utility.yul\":3862:3871   */\n  dup8\n    /* \"#utility.yul\":3858:3880   */\n  add\n    /* \"#utility.yul\":3816:3890   */\n  tag_34\n  jump\t// in\ntag_81:\n    /* \"#utility.yul\":3806:3890   */\n  swap2\n  pop\n    /* \"#utility.yul\":3608:3900   */\n  pop\n    /* \"#utility.yul\":2725:3907   */\n  swap3\n  pop\n  swap3\n  pop\n  swap3\n  jump\t// out\n    /* \"#utility.yul\":3913:4093   */\ntag_35:\n    /* \"#utility.yul\":3961:4038   */\n  0x4e487b7100000000000000000000000000000000000000000000000000000000\n    /* \"#utility.yul\":3958:3959   */\n  0x00\n    /* \"#utility.yul\":3951:4039   */\n  mstore\n    /* \"#utility.yul\":4058:4062   */\n  0x22\n    /* \"#utility.yul\":4055:4056   */\n  0x04\n    /* \"#utility.yul\":4048:4063   */\n  mstore\n    /* \"#utility.yul\":4082:4086   */\n  0x24\n    /* \"#utility.yul\":4079:4080   */\n  0x00\n    /* \"#utility.yul\":4072:4087   */\n  revert\n    /* \"#utility.yul\":4099:4419   */\ntag_12:\n    /* \"#utility.yul\":4143:4149   */\n  0x00\n    /* \"#utility.yul\":4180:4181   */\n  0x02\n    /* \"#utility.yul\":4174:4178   */\n  dup3\n    /* \"#utility.yul\":4170:4182   */\n  div\n    /* \"#utility.yul\":4160:4182   */\n  swap1\n  pop\n    /* \"#utility.yul\":4227:4228   */\n  0x01\n    /* \"#utility.yul\":4221:4225   */\n  dup3\n    /* \"#utility.yul\":4217:4229   */\n  and\n    /* \"#utility.yul\":4248:4266   */\n  dup1\n    /* \"#utility.yul\":4238:4319   */\n  tag_84\n  jumpi\n    /* \"#utility.yul\":4304:4308   */\n  0x7f\n    /* \"#utility.yul\":4296:4302   */\n  dup3\n    /* \"#utility.yul\":4292:4309   */\n  and\n    /* \"#utility.yul\":4282:4309   */\n  swap2\n  pop\n    /* \"#utility.yul\":4238:4319   */\ntag_84:\n    /* \"#utility.yul\":4366:4368   */\n  0x20\n    /* \"#utility.yul\":4358:4364   */\n  dup3\n    /* \"#utility.yul\":4355:4369   */\n  lt\n    /* \"#utility.yul\":4335:4353   */\n  dup2\n    /* \"#utility.yul\":4332:4370   */\n  sub\n    /* \"#utility.yul\":4329:4413   */\n  tag_85\n  jumpi\n    /* \"#utility.yul\":4385:4403   */\n  tag_86\n  tag_35\n  jump\t// in\ntag_86:\n    /* \"#utility.yul\":4329:4413   */\ntag_85:\n    /* \"#utility.yul\":4150:4419   */\n  pop\n    /* \"#utility.yul\":4099:4419   */\n  swap2\n  swap1\n  pop\n  jump\t// out\n    /* \"Donation.sol\":869:3424  contract DonationCampaign {... */\ntag_10:\n  dataSize(sub_0)\n  dup1\n  dataOffset(sub_0)\n  0x00\n  codecopy\n  0x00\n  return\nstop\n\nsub_0: assembly {\n        /* \"Donation.sol\":869:3424  contract DonationCampaign {... */\n      mstore(0x40, 0x80)\n      callvalue\n      dup1\n      iszero\n      tag_1\n      jumpi\n      0x00\n      dup1\n      revert\n    tag_1:\n      pop\n      jumpi(tag_2, lt(calldatasize, 0x04))\n      shr(0xe0, calldataload(0x00))\n      dup1\n      0xd6695c9b\n      gt\n      tag_16\n      jumpi\n      dup1\n      0xef07a81f\n      gt\n      tag_17\n      jumpi\n      dup1\n      0xef07a81f\n      eq\n      tag_12\n      jumpi\n      dup1\n      0xef430aa6\n      eq\n      tag_13\n      jumpi\n      dup1\n      0xf8626af8\n      eq\n      tag_14\n      jumpi\n      dup1\n      0xfb346eab\n      eq\n      tag_15\n      jumpi\n      jump(tag_2)\n    tag_17:\n      dup1\n      0xd6695c9b\n      eq\n      tag_9\n      jumpi\n      dup1\n      0xe1a50aaf\n      eq\n      tag_10\n      jumpi\n      dup1\n      0xe55a62a8\n      eq\n      tag_11\n      jumpi\n      jump(tag_2)\n    tag_16:\n      dup1\n      0xb37044\n      eq\n      tag_3\n      jumpi\n      dup1\n      0x3c4101fb\n      eq\n      tag_4\n      jumpi\n      dup1\n      0x4a79d50c\n      eq\n      tag_5\n      jumpi\n      dup1\n      0x656a42be\n      eq\n      tag_6\n      jumpi\n      dup1\n      0xb5285d83\n      eq\n      tag_7\n      jumpi\n      dup1\n      0xc4257beb\n      eq\n      tag_8\n      jumpi\n    tag_2:\n      0x00\n      dup1\n      revert\n        /* \"Donation.sol\":1450:1474  uint public totalDonated */\n    tag_3:\n      tag_18\n      tag_19\n      jump\t// in\n    tag_18:\n      mload(0x40)\n      tag_20\n      swap2\n      swap1\n      tag_21\n      jump\t// in\n    tag_20:\n      mload(0x40)\n      dup1\n      swap2\n      sub\n      swap1\n      return\n        /* \"Donation.sol\":1318:1345  string public organizerName */\n    tag_4:\n      tag_22\n      tag_23\n      jump\t// in\n    tag_22:\n      mload(0x40)\n      tag_24\n      swap2\n      swap1\n      tag_25\n      jump\t// in\n    tag_24:\n      mload(0x40)\n      dup1\n      swap2\n      sub\n      swap1\n      return\n        /* \"Donation.sol\":1227:1246  string public title */\n    tag_5:\n      tag_26\n      tag_27\n      jump\t// in\n    tag_26:\n      mload(0x40)\n      tag_28\n      swap2\n      swap1\n      tag_25\n      jump\t// in\n    tag_28:\n      mload(0x40)\n      dup1\n      swap2\n      sub\n      swap1\n      return\n        /* \"Donation.sol\":2768:2865  function getSpendingCount() public view returns (uint) {... */\n    tag_6:\n      tag_29\n      tag_30\n      jump\t// in\n    tag_29:\n      mload(0x40)\n      tag_31\n      swap2\n      swap1\n      tag_21\n      jump\t// in\n    tag_31:\n      mload(0x40)\n      dup1\n      swap2\n      sub\n      swap1\n      return\n        /* \"Donation.sol\":1416:1443  Spending[] public spendings */\n    tag_7:\n      tag_32\n      0x04\n      dup1\n      calldatasize\n      sub\n      dup2\n      add\n      swap1\n      tag_33\n      swap2\n      swap1\n      tag_34\n      jump\t// in\n    tag_33:\n      tag_35\n      jump\t// in\n    tag_32:\n      mload(0x40)\n      tag_36\n      swap5\n      swap4\n      swap3\n      swap2\n      swap1\n      tag_37\n      jump\t// in\n    tag_36:\n      mload(0x40)\n      dup1\n      swap2\n      sub\n      swap1\n      return\n        /* \"Donation.sol\":3126:3421  function getSpending(uint index)... */\n    tag_8:\n      tag_38\n      0x04\n      dup1\n      calldatasize\n      sub\n      dup2\n      add\n      swap1\n      tag_39\n      swap2\n      swap1\n      tag_34\n      jump\t// in\n    tag_39:\n      tag_40\n      jump\t// in\n    tag_38:\n      mload(0x40)\n      tag_41\n      swap5\n      swap4\n      swap3\n      swap2\n      swap1\n      tag_37\n      jump\t// in\n    tag_41:\n      mload(0x40)\n      dup1\n      swap2\n      sub\n      swap1\n      return\n        /* \"Donation.sol\":1845:2147  function recordDonation(uint _amount, string memory _purpose) public {... */\n    tag_9:\n      tag_42\n      0x04\n      dup1\n      calldatasize\n      sub\n      dup2\n      add\n      swap1\n      tag_43\n      swap2\n      swap1\n      tag_44\n      jump\t// in\n    tag_43:\n      tag_45\n      jump\t// in\n    tag_42:\n      stop\n        /* \"Donation.sol\":2191:2606  function logSpending(... */\n    tag_10:\n      tag_46\n      0x04\n      dup1\n      calldatasize\n      sub\n      dup2\n      add\n      swap1\n      tag_47\n      swap2\n      swap1\n      tag_48\n      jump\t// in\n    tag_47:\n      tag_49\n      jump\t// in\n    tag_46:\n      stop\n        /* \"Donation.sol\":2663:2760  function getDonationCount() public view returns (uint) {... */\n    tag_11:\n      tag_50\n      tag_51\n      jump\t// in\n    tag_50:\n      mload(0x40)\n      tag_52\n      swap2\n      swap1\n      tag_21\n      jump\t// in\n    tag_52:\n      mload(0x40)\n      dup1\n      swap2\n      sub\n      swap1\n      return\n        /* \"Donation.sol\":2873:3118  function getDonation(uint index)... */\n    tag_12:\n      tag_53\n      0x04\n      dup1\n      calldatasize\n      sub\n      dup2\n      add\n      swap1\n      tag_54\n      swap2\n      swap1\n      tag_34\n      jump\t// in\n    tag_54:\n      tag_55\n      jump\t// in\n    tag_53:\n      mload(0x40)\n      tag_56\n      swap4\n      swap3\n      swap2\n      swap1\n      tag_57\n      jump\t// in\n    tag_56:\n      mload(0x40)\n      dup1\n      swap2\n      sub\n      swap1\n      return\n        /* \"Donation.sol\":1253:1275  string public category */\n    tag_13:\n      tag_58\n      tag_59\n      jump\t// in\n    tag_58:\n      mload(0x40)\n      tag_60\n      swap2\n      swap1\n      tag_25\n      jump\t// in\n    tag_60:\n      mload(0x40)\n      dup1\n      swap2\n      sub\n      swap1\n      return\n        /* \"Donation.sol\":1382:1409  Donation[] public donations */\n    tag_14:\n      tag_61\n      0x04\n      dup1\n      calldatasize\n      sub\n      dup2\n      add\n      swap1\n      tag_62\n      swap2\n      swap1\n      tag_34\n      jump\t// in\n    tag_62:\n      tag_63\n      jump\t// in\n    tag_61:\n      mload(0x40)\n      tag_64\n      swap4\n      swap3\n      swap2\n      swap1\n      tag_57\n      jump\t// in\n    tag_64:\n      mload(0x40)\n      dup1\n      swap2\n      sub\n      swap1\n      return\n        /* \"Donation.sol\":1481:1503  uint public totalSpent */\n    tag_15:\n      tag_65\n      tag_66\n      jump\t// in\n    tag_65:\n      mload(0x40)\n      tag_67\n      swap2\n      swap1\n      tag_21\n      jump\t// in\n    tag_67:\n      mload(0x40)\n      dup1\n      swap2\n      sub\n      swap1\n      return\n        /* \"Donation.sol\":1450:1474  uint public totalDonated */\n    tag_19:\n      sload(0x05)\n      dup2\n      jump\t// out\n        /* \"Donation.sol\":1318:1345  string public organizerName */\n    tag_23:\n      0x02\n      dup1\n      sload\n      tag_68\n      swap1\n      tag_69\n      jump\t// in\n    tag_68:\n      dup1\n      0x1f\n      add\n      0x20\n      dup1\n      swap2\n      div\n      mul\n      0x20\n      add\n      mload(0x40)\n      swap1\n      dup2\n      add\n      0x40\n      mstore\n      dup1\n      swap3\n      swap2\n      swap1\n      dup2\n      dup2\n      mstore\n      0x20\n      add\n      dup3\n      dup1\n      sload\n      tag_70\n      swap1\n      tag_69\n      jump\t// in\n    tag_70:\n      dup1\n      iszero\n      tag_71\n      jumpi\n      dup1\n      0x1f\n      lt\n      tag_72\n      jumpi\n      0x0100\n      dup1\n      dup4\n      sload\n      div\n      mul\n      dup4\n      mstore\n      swap2\n      0x20\n      add\n      swap2\n      jump(tag_71)\n    tag_72:\n      dup3\n      add\n      swap2\n      swap1\n      0x00\n      mstore\n      keccak256(0x00, 0x20)\n      swap1\n    tag_73:\n      dup2\n      sload\n      dup2\n      mstore\n      swap1\n      0x01\n      add\n      swap1\n      0x20\n      add\n      dup1\n      dup4\n      gt\n      tag_73\n      jumpi\n      dup3\n      swap1\n      sub\n      0x1f\n      and\n      dup3\n      add\n      swap2\n    tag_71:\n      pop\n      pop\n      pop\n      pop\n      pop\n      dup2\n      jump\t// out\n        /* \"Donation.sol\":1227:1246  string public title */\n    tag_27:\n      0x00\n      dup1\n      sload\n      tag_74\n      swap1\n      tag_69\n      jump\t// in\n    tag_74:\n      dup1\n      0x1f\n      add\n      0x20\n      dup1\n      swap2\n      div\n      mul\n      0x20\n      add\n      mload(0x40)\n      swap1\n      dup2\n      add\n      0x40\n      mstore\n      dup1\n      swap3\n      swap2\n      swap1\n      dup2\n      dup2\n      mstore\n      0x20\n      add\n      dup3\n      dup1\n      sload\n      tag_75\n      swap1\n      tag_69\n      jump\t// in\n    tag_75:\n      dup1\n      iszero\n      tag_76\n      jumpi\n      dup1\n      0x1f\n      lt\n      tag_77\n      jumpi\n      0x0100\n      dup1\n      dup4\n      sload\n      div\n      mul\n      dup4\n      mstore\n      swap2\n      0x20\n      add\n      swap2\n      jump(tag_76)\n    tag_77:\n      dup3\n      add\n      swap2\n      swap1\n      0x00\n      mstore\n      keccak256(0x00, 0x20)\n      swap1\n    tag_78:\n      dup2\n      sload\n      dup2\n      mstore\n      swap1\n      0x01\n      add\n      swap1\n      0x20\n      add\n      dup1\n      dup4\n      gt\n      tag_78\n      jumpi\n      dup3\n      swap1\n      sub\n      0x1f\n      and\n      dup3\n      add\n      swap2\n    tag_76:\n      pop\n      pop\n      pop\n      pop\n      pop\n      dup2\n      jump\t// out\n        /* \"Donation.sol\":2768:2865  function getSpendingCount() public view returns (uint) {... */\n    tag_30:\n        /* \"Donation.sol\":2817:2821  uint */\n      0x00\n        /* \"Donation.sol\":2841:2850  spendings */\n      0x04\n        /* \"Donation.sol\":2841:2857  spendings.length */\n      dup1\n      sload\n      swap1\n      pop\n        /* \"Donation.sol\":2834:2857  return spendings.length */\n      swap1\n      pop\n        /* \"Donation.sol\":2768:2865  function getSpendingCount() public view returns (uint) {... */\n      swap1\n      jump\t// out\n        /* \"Donation.sol\":1416:1443  Spending[] public spendings */\n    tag_35:\n      0x04\n      dup2\n      dup2\n      sload\n      dup2\n      lt\n      tag_80\n      jumpi\n      0x00\n      dup1\n      revert\n    tag_80:\n      swap1\n      0x00\n      mstore\n      keccak256(0x00, 0x20)\n      swap1\n      0x04\n      mul\n      add\n      0x00\n      swap2\n      pop\n      swap1\n      pop\n      dup1\n      0x00\n      add\n      dup1\n      sload\n      tag_82\n      swap1\n      tag_69\n      jump\t// in\n    tag_82:\n      dup1\n      0x1f\n      add\n      0x20\n      dup1\n      swap2\n      div\n      mul\n      0x20\n      add\n      mload(0x40)\n      swap1\n      dup2\n      add\n      0x40\n      mstore\n      dup1\n      swap3\n      swap2\n      swap1\n      dup2\n      dup2\n      mstore\n      0x20\n      add\n      dup3\n      dup1\n      sload\n      tag_83\n      swap1\n      tag_69\n      jump\t// in\n    tag_83:\n      dup1\n      iszero\n      tag_84\n      jumpi\n      dup1\n      0x1f\n      lt\n      tag_85\n      jumpi\n      0x0100\n      dup1\n      dup4\n      sload\n      div\n      mul\n      dup4\n      mstore\n      swap2\n      0x20\n      add\n      swap2\n      jump(tag_84)\n    tag_85:\n      dup3\n      add\n      swap2\n      swap1\n      0x00\n      mstore\n      keccak256(0x00, 0x20)\n      swap1\n    tag_86:\n      dup2\n      sload\n      dup2\n      mstore\n      swap1\n      0x01\n      add\n      swap1\n      0x20\n      add\n      dup1\n      dup4\n      gt\n      tag_86\n      jumpi\n      dup3\n      swap1\n      sub\n      0x1f\n      and\n      dup3\n      add\n      swap2\n    tag_84:\n      pop\n      pop\n      pop\n      pop\n      pop\n      swap1\n      dup1\n      0x01\n      add\n      sload\n      swap1\n      dup1\n      0x02\n      add\n      sload\n      swap1\n      dup1\n      0x03\n      add\n      dup1\n      sload\n      tag_87\n      swap1\n      tag_69\n      jump\t// in\n    tag_87:\n      dup1\n      0x1f\n      add\n      0x20\n      dup1\n      swap2\n      div\n      mul\n      0x20\n      add\n      mload(0x40)\n      swap1\n      dup2\n      add\n      0x40\n      mstore\n      dup1\n      swap3\n      swap2\n      swap1\n      dup2\n      dup2\n      mstore\n      0x20\n      add\n      dup3\n      dup1\n      sload\n      tag_88\n      swap1\n      tag_69\n      jump\t// in\n    tag_88:\n      dup1\n      iszero\n      tag_89\n      jumpi\n      dup1\n      0x1f\n      lt\n      tag_90\n      jumpi\n      0x0100\n      dup1\n      dup4\n      sload\n      div\n      mul\n      dup4\n      mstore\n      swap2\n      0x20\n      add\n      swap2\n      jump(tag_89)\n    tag_90:\n      dup3\n      add\n      swap2\n      swap1\n      0x00\n      mstore\n      keccak256(0x00, 0x20)\n      swap1\n    tag_91:\n      dup2\n      sload\n      dup2\n      mstore\n      swap1\n      0x01\n      add\n      swap1\n      0x20\n      add\n      dup1\n      dup4\n      gt\n      tag_91\n      jumpi\n      dup3\n      swap1\n      sub\n      0x1f\n      and\n      dup3\n      add\n      swap2\n    tag_89:\n      pop\n      pop\n      pop\n      pop\n      pop\n      swap1\n      pop\n      dup5\n      jump\t// out\n        /* \"Donation.sol\":3126:3421  function getSpending(uint index)... */\n    tag_40:\n        /* \"Donation.sol\":3207:3232  string memory description */\n      0x60\n        /* \"Donation.sol\":3234:3245  uint amount */\n      0x00\n        /* \"Donation.sol\":3247:3261  uint timestamp */\n      dup1\n        /* \"Donation.sol\":3263:3288  string memory receiptHash */\n      0x60\n        /* \"Donation.sol\":3306:3323  Spending memory s */\n      0x00\n        /* \"Donation.sol\":3326:3335  spendings */\n      0x04\n        /* \"Donation.sol\":3336:3341  index */\n      dup7\n        /* \"Donation.sol\":3326:3342  spendings[index] */\n      dup2\n      sload\n      dup2\n      lt\n      tag_93\n      jumpi\n      tag_94\n      tag_95\n      jump\t// in\n    tag_94:\n    tag_93:\n      swap1\n      0x00\n      mstore\n      keccak256(0x00, 0x20)\n      swap1\n      0x04\n      mul\n      add\n        /* \"Donation.sol\":3306:3342  Spending memory s = spendings[index] */\n      mload(0x40)\n      dup1\n      0x80\n      add\n      0x40\n      mstore\n      swap1\n      dup2\n      0x00\n      dup3\n      add\n      dup1\n      sload\n      tag_97\n      swap1\n      tag_69\n      jump\t// in\n    tag_97:\n      dup1\n      0x1f\n      add\n      0x20\n      dup1\n      swap2\n      div\n      mul\n      0x20\n      add\n      mload(0x40)\n      swap1\n      dup2\n      add\n      0x40\n      mstore\n      dup1\n      swap3\n      swap2\n      swap1\n      dup2\n      dup2\n      mstore\n      0x20\n      add\n      dup3\n      dup1\n      sload\n      tag_98\n      swap1\n      tag_69\n      jump\t// in\n    tag_98:\n      dup1\n      iszero\n      tag_99\n      jumpi\n      dup1\n      0x1f\n      lt\n      tag_100\n      jumpi\n      0x0100\n      dup1\n      dup4\n      sload\n      div\n      mul\n      dup4\n      mstore\n      swap2\n      0x20\n      add\n      swap2\n      jump(tag_99)\n    tag_100:\n      dup3\n      add\n      swap2\n      swap1\n      0x00\n      mstore\n      keccak256(0x00, 0x20)\n      swap1\n    tag_101:\n      dup2\n      sload\n      dup2\n      mstore\n      swap1\n      0x01\n      add\n      swap1\n      0x20\n      add\n      dup1\n      dup4\n      gt\n      tag_101\n      jumpi\n      dup3\n      swap1\n      sub\n      0x1f\n      and\n      dup3\n      add\n      swap2\n    tag_99:\n      pop\n      pop\n      pop\n      pop\n      pop\n      dup2\n      mstore\n      0x20\n      add\n      0x01\n      dup3\n      add\n      sload\n      dup2\n      mstore\n      0x20\n      add\n      0x02\n      dup3\n      add\n      sload\n      dup2\n      mstore\n      0x20\n      add\n      0x03\n      dup3\n      add\n      dup1\n      sload\n      tag_102\n      swap1\n      tag_69\n      jump\t// in\n    tag_102:\n      dup1\n      0x1f\n      add\n      0x20\n      dup1\n      swap2\n      div\n      mul\n      0x20\n      add\n      mload(0x40)\n      swap1\n      dup2\n      add\n      0x40\n      mstore\n      dup1\n      swap3\n      swap2\n      swap1\n      dup2\n      dup2\n      mstore\n      0x20\n      add\n      dup3\n      dup1\n      sload\n      tag_103\n      swap1\n      tag_69\n      jump\t// in\n    tag_103:\n      dup1\n      iszero\n      tag_104\n      jumpi\n      dup1\n      0x1f\n      lt\n      tag_105\n      jumpi\n      0x0100\n      dup1\n      dup4\n      sload\n      div\n      mul\n      dup4\n      mstore\n      swap2\n      0x20\n      add\n      swap2\n      jump(tag_104)\n    tag_105:\n      dup3\n      add\n      swap2\n      swap1\n      0x00\n      mstore\n      keccak256(0x00, 0x20)\n      swap1\n    tag_106:\n      dup2\n      sload\n      dup2\n      mstore\n      swap1\n      0x01\n      add\n      swap1\n      0x20\n      add\n      dup1\n      dup4\n      gt\n      tag_106\n      jumpi\n      dup3\n      swap1\n      sub\n      0x1f\n      and\n      dup3\n      add\n      swap2\n    tag_104:\n      pop\n      pop\n      pop\n      pop\n      pop\n      dup2\n      mstore\n      pop\n      pop\n      swap1\n      pop\n        /* \"Donation.sol\":3361:3362  s */\n      dup1\n        /* \"Donation.sol\":3361:3374  s.description */\n      0x00\n      add\n      mload\n        /* \"Donation.sol\":3376:3377  s */\n      dup2\n        /* \"Donation.sol\":3376:3384  s.amount */\n      0x20\n      add\n      mload\n        /* \"Donation.sol\":3386:3387  s */\n      dup3\n        /* \"Donation.sol\":3386:3397  s.timestamp */\n      0x40\n      add\n      mload\n        /* \"Donation.sol\":3399:3400  s */\n      dup4\n        /* \"Donation.sol\":3399:3412  s.receiptHash */\n      0x60\n      add\n      mload\n        /* \"Donation.sol\":3353:3413  return (s.description, s.amount, s.timestamp, s.receiptHash) */\n      swap5\n      pop\n      swap5\n      pop\n      swap5\n      pop\n      swap5\n      pop\n      pop\n        /* \"Donation.sol\":3126:3421  function getSpending(uint index)... */\n      swap2\n      swap4\n      pop\n      swap2\n      swap4\n      jump\t// out\n        /* \"Donation.sol\":1845:2147  function recordDonation(uint _amount, string memory _purpose) public {... */\n    tag_45:\n        /* \"Donation.sol\":1925:1934  donations */\n      0x03\n        /* \"Donation.sol\":1954:2094  Donation({... */\n      mload(0x40)\n      dup1\n      0x60\n      add\n      0x40\n      mstore\n      dup1\n        /* \"Donation.sol\":1990:1997  _amount */\n      dup5\n        /* \"Donation.sol\":1954:2094  Donation({... */\n      dup2\n      mstore\n      0x20\n      add\n        /* \"Donation.sol\":2027:2042  block.timestamp */\n      timestamp\n        /* \"Donation.sol\":1954:2094  Donation({... */\n      dup2\n      mstore\n      0x20\n      add\n        /* \"Donation.sol\":2070:2078  _purpose */\n      dup4\n        /* \"Donation.sol\":1954:2094  Donation({... */\n      dup2\n      mstore\n      pop\n        /* \"Donation.sol\":1925:2105  donations.push(... */\n      swap1\n      dup1\n      0x01\n      dup2\n      sload\n      add\n      dup1\n      dup3\n      sstore\n      dup1\n      swap2\n      pop\n      pop\n      0x01\n      swap1\n      sub\n      swap1\n      0x00\n      mstore\n      keccak256(0x00, 0x20)\n      swap1\n      0x03\n      mul\n      add\n      0x00\n      swap1\n      swap2\n      swap1\n      swap2\n      swap1\n      swap2\n      pop\n      0x00\n      dup3\n      add\n      mload\n      dup2\n      0x00\n      add\n      sstore\n      0x20\n      dup3\n      add\n      mload\n      dup2\n      0x01\n      add\n      sstore\n      0x40\n      dup3\n      add\n      mload\n      dup2\n      0x02\n      add\n      swap1\n      dup1\n      mload\n      swap1\n      0x20\n      add\n      swap1\n      tag_109\n      swap3\n      swap2\n      swap1\n      tag_110\n      jump\t// in\n    tag_109:\n      pop\n      pop\n      pop\n        /* \"Donation.sol\":2132:2139  _amount */\n      dup2\n        /* \"Donation.sol\":2116:2128  totalDonated */\n      0x05\n      0x00\n        /* \"Donation.sol\":2116:2139  totalDonated += _amount */\n      dup3\n      dup3\n      sload\n      tag_111\n      swap2\n      swap1\n      tag_112\n      jump\t// in\n    tag_111:\n      swap3\n      pop\n      pop\n      dup2\n      swap1\n      sstore\n      pop\n        /* \"Donation.sol\":1845:2147  function recordDonation(uint _amount, string memory _purpose) public {... */\n      pop\n      pop\n      jump\t// out\n        /* \"Donation.sol\":2191:2606  function logSpending(... */\n    tag_49:\n        /* \"Donation.sol\":2334:2343  spendings */\n      0x04\n        /* \"Donation.sol\":2363:2555  Spending({... */\n      mload(0x40)\n      dup1\n      0x80\n      add\n      0x40\n      mstore\n      dup1\n        /* \"Donation.sol\":2404:2416  _description */\n      dup6\n        /* \"Donation.sol\":2363:2555  Spending({... */\n      dup2\n      mstore\n      0x20\n      add\n        /* \"Donation.sol\":2443:2450  _amount */\n      dup5\n        /* \"Donation.sol\":2363:2555  Spending({... */\n      dup2\n      mstore\n      0x20\n      add\n        /* \"Donation.sol\":2480:2495  block.timestamp */\n      timestamp\n        /* \"Donation.sol\":2363:2555  Spending({... */\n      dup2\n      mstore\n      0x20\n      add\n        /* \"Donation.sol\":2527:2539  _receiptHash */\n      dup4\n        /* \"Donation.sol\":2363:2555  Spending({... */\n      dup2\n      mstore\n      pop\n        /* \"Donation.sol\":2334:2566  spendings.push(... */\n      swap1\n      dup1\n      0x01\n      dup2\n      sload\n      add\n      dup1\n      dup3\n      sstore\n      dup1\n      swap2\n      pop\n      pop\n      0x01\n      swap1\n      sub\n      swap1\n      0x00\n      mstore\n      keccak256(0x00, 0x20)\n      swap1\n      0x04\n      mul\n      add\n      0x00\n      swap1\n      swap2\n      swap1\n      swap2\n      swap1\n      swap2\n      pop\n      0x00\n      dup3\n      add\n      mload\n      dup2\n      0x00\n      add\n      swap1\n      dup1\n      mload\n      swap1\n      0x20\n      add\n      swap1\n      tag_115\n      swap3\n      swap2\n      swap1\n      tag_110\n      jump\t// in\n    tag_115:\n      pop\n      0x20\n      dup3\n      add\n      mload\n      dup2\n      0x01\n      add\n      sstore\n      0x40\n      dup3\n      add\n      mload\n      dup2\n      0x02\n      add\n      sstore\n      0x60\n      dup3\n      add\n      mload\n      dup2\n      0x03\n      add\n      swap1\n      dup1\n      mload\n      swap1\n      0x20\n      add\n      swap1\n      tag_116\n      swap3\n      swap2\n      swap1\n      tag_110\n      jump\t// in\n    tag_116:\n      pop\n      pop\n      pop\n        /* \"Donation.sol\":2591:2598  _amount */\n      dup2\n        /* \"Donation.sol\":2577:2587  totalSpent */\n      0x06\n      0x00\n        /* \"Donation.sol\":2577:2598  totalSpent += _amount */\n      dup3\n      dup3\n      sload\n      tag_117\n      swap2\n      swap1\n      tag_112\n      jump\t// in\n    tag_117:\n      swap3\n      pop\n      pop\n      dup2\n      swap1\n      sstore\n      pop\n        /* \"Donation.sol\":2191:2606  function logSpending(... */\n      pop\n      pop\n      pop\n      jump\t// out\n        /* \"Donation.sol\":2663:2760  function getDonationCount() public view returns (uint) {... */\n    tag_51:\n        /* \"Donation.sol\":2712:2716  uint */\n      0x00\n        /* \"Donation.sol\":2736:2745  donations */\n      0x03\n        /* \"Donation.sol\":2736:2752  donations.length */\n      dup1\n      sload\n      swap1\n      pop\n        /* \"Donation.sol\":2729:2752  return donations.length */\n      swap1\n      pop\n        /* \"Donation.sol\":2663:2760  function getDonationCount() public view returns (uint) {... */\n      swap1\n      jump\t// out\n        /* \"Donation.sol\":2873:3118  function getDonation(uint index)... */\n    tag_55:\n        /* \"Donation.sol\":2954:2965  uint amount */\n      0x00\n        /* \"Donation.sol\":2967:2981  uint timestamp */\n      dup1\n        /* \"Donation.sol\":2983:3004  string memory purpose */\n      0x60\n        /* \"Donation.sol\":3022:3039  Donation memory d */\n      0x00\n        /* \"Donation.sol\":3042:3051  donations */\n      0x03\n        /* \"Donation.sol\":3052:3057  index */\n      dup6\n        /* \"Donation.sol\":3042:3058  donations[index] */\n      dup2\n      sload\n      dup2\n      lt\n      tag_120\n      jumpi\n      tag_121\n      tag_95\n      jump\t// in\n    tag_121:\n    tag_120:\n      swap1\n      0x00\n      mstore\n      keccak256(0x00, 0x20)\n      swap1\n      0x03\n      mul\n      add\n        /* \"Donation.sol\":3022:3058  Donation memory d = donations[index] */\n      mload(0x40)\n      dup1\n      0x60\n      add\n      0x40\n      mstore\n      swap1\n      dup2\n      0x00\n      dup3\n      add\n      sload\n      dup2\n      mstore\n      0x20\n      add\n      0x01\n      dup3\n      add\n      sload\n      dup2\n      mstore\n      0x20\n      add\n      0x02\n      dup3\n      add\n      dup1\n      sload\n      tag_123\n      swap1\n      tag_69\n      jump\t// in\n    tag_123:\n      dup1\n      0x1f\n      add\n      0x20\n      dup1\n      swap2\n      div\n      mul\n      0x20\n      add\n      mload(0x40)\n      swap1\n      dup2\n      add\n      0x40\n      mstore\n      dup1\n      swap3\n      swap2\n      swap1\n      dup2\n      dup2\n      mstore\n      0x20\n      add\n      dup3\n      dup1\n      sload\n      tag_124\n      swap1\n      tag_69\n      jump\t// in\n    tag_124:\n      dup1\n      iszero\n      tag_125\n      jumpi\n      dup1\n      0x1f\n      lt\n      tag_126\n      jumpi\n      0x0100\n      dup1\n      dup4\n      sload\n      div\n      mul\n      dup4\n      mstore\n      swap2\n      0x20\n      add\n      swap2\n      jump(tag_125)\n    tag_126:\n      dup3\n      add\n      swap2\n      swap1\n      0x00\n      mstore\n      keccak256(0x00, 0x20)\n      swap1\n    tag_127:\n      dup2\n      sload\n      dup2\n      mstore\n      swap1\n      0x01\n      add\n      swap1\n      0x20\n      add\n      dup1\n      dup4\n      gt\n      tag_127\n      jumpi\n      dup3\n      swap1\n      sub\n      0x1f\n      and\n      dup3\n      add\n      swap2\n    tag_125:\n      pop\n      pop\n      pop\n      pop\n      pop\n      dup2\n      mstore\n      pop\n      pop\n      swap1\n      pop\n        /* \"Donation.sol\":3077:3078  d */\n      dup1\n        /* \"Donation.sol\":3077:3085  d.amount */\n      0x00\n      add\n      mload\n        /* \"Donation.sol\":3087:3088  d */\n      dup2\n        /* \"Donation.sol\":3087:3098  d.timestamp */\n      0x20\n      add\n      mload\n        /* \"Donation.sol\":3100:3101  d */\n      dup3\n        /* \"Donation.sol\":3100:3109  d.purpose */\n      0x40\n      add\n      mload\n        /* \"Donation.sol\":3069:3110  return (d.amount, d.timestamp, d.purpose) */\n      swap4\n      pop\n      swap4\n      pop\n      swap4\n      pop\n      pop\n        /* \"Donation.sol\":2873:3118  function getDonation(uint index)... */\n      swap2\n      swap4\n      swap1\n      swap3\n      pop\n      jump\t// out\n        /* \"Donation.sol\":1253:1275  string public category */\n    tag_59:\n      0x01\n      dup1\n      sload\n      tag_128\n      swap1\n      tag_69\n      jump\t// in\n    tag_128:\n      dup1\n      0x1f\n      add\n      0x20\n      dup1\n      swap2\n      div\n      mul\n      0x20\n      add\n      mload(0x40)\n      swap1\n      dup2\n      add\n      0x40\n      mstore\n      dup1\n      swap3\n      swap2\n      swap1\n      dup2\n      dup2\n      mstore\n      0x20\n      add\n      dup3\n      dup1\n      sload\n      tag_129\n      swap1\n      tag_69\n      jump\t// in\n    tag_129:\n      dup1\n      iszero\n      tag_130\n      jumpi\n      dup1\n      0x1f\n      lt\n      tag_131\n      jumpi\n      0x0100\n      dup1\n      dup4\n      sload\n      div\n      mul\n      dup4\n      mstore\n      swap2\n      0x20\n      add\n      swap2\n      jump(tag_130)\n    tag_131:\n      dup3\n      add\n      swap2\n      swap1\n      0x00\n      mstore\n      keccak256(0x00, 0x20)\n      swap1\n    tag_132:\n      dup2\n      sload\n      dup2\n      mstore\n      swap1\n      0x01\n      add\n      swap1\n      0x20\n      add\n      dup1\n      dup4\n      gt\n      tag_132\n      jumpi\n      dup3\n      swap1\n      sub\n      0x1f\n      and\n      dup3\n      add\n      swap2\n    tag_130:\n      pop\n      pop\n      pop\n      pop\n      pop\n      dup2\n      jump\t// out\n        /* \"Donation.sol\":1382:1409  Donation[] public donations */\n    tag_63:\n      0x03\n      dup2\n      dup2\n      sload\n      dup2\n      lt\n      tag_133\n      jumpi\n      0x00\n      dup1\n      revert\n    tag_133:\n      swap1\n      0x00\n      mstore\n      keccak256(0x00, 0x20)\n      swap1\n      0x03\n      mul\n      add\n      0x00\n      swap2\n      pop\n      swap1\n      pop\n      dup1\n      0x00\n      add\n      sload\n      swap1\n      dup1\n      0x01\n      add\n      sload\n      swap1\n      dup1\n      0x02\n      add\n      dup1\n      sload\n      tag_135\n      swap1\n      tag_69\n      jump\t// in\n    tag_135:\n      dup1\n      0x1f\n      add\n      0x20\n      dup1\n      swap2\n      div\n      mul\n      0x20\n      add\n      mload(0x40)\n      swap1\n      dup2\n      add\n      0x40\n      mstore\n      dup1\n      swap3\n      swap2\n      swap1\n      dup2\n      dup2\n      mstore\n      0x20\n      add\n      dup3\n      dup1\n      sload\n      tag_136\n      swap1\n      tag_69\n      jump\t// in\n    tag_136:\n      dup1\n      iszero\n      tag_137\n      jumpi\n      dup1\n      0x1f\n      lt\n      tag_138\n      jumpi\n      0x0100\n      dup1\n      dup4\n      sload\n      div\n      mul\n      dup4\n      mstore\n      swap2\n      0x20\n      add\n      swap2\n      jump(tag_137)\n    tag_138:\n      dup3\n      add\n      swap2\n      swap1\n      0x00\n      mstore\n      keccak256(0x00, 0x20)\n      swap1\n    tag_139:\n      dup2\n      sload\n      dup2\n      mstore\n      swap1\n      0x01\n      add\n      swap1\n      0x20\n      add\n      dup1\n      dup4\n      gt\n      tag_139\n      jumpi\n      dup3\n      swap1\n      sub\n      0x1f\n      and\n      dup3\n      add\n      swap2\n    tag_137:\n      pop\n      pop\n      pop\n      pop\n      pop\n      swap1\n      pop\n      dup4\n      jump\t// out\n        /* \"Donation.sol\":1481:1503  uint public totalSpent */\n    tag_66:\n      sload(0x06)\n      dup2\n      jump\t// out\n    tag_110:\n      dup3\n      dup1\n      sload\n      tag_140\n      swap1\n      tag_69\n      jump\t// in\n    tag_140:\n      swap1\n      0x00\n      mstore\n      keccak256(0x00, 0x20)\n      swap1\n      0x1f\n      add\n      0x20\n      swap1\n      div\n      dup2\n      add\n      swap3\n      dup3\n      tag_142\n      jumpi\n      0x00\n      dup6\n      sstore\n      jump(tag_141)\n    tag_142:\n      dup3\n      0x1f\n      lt\n      tag_143\n      jumpi\n      dup1\n      mload\n      not(0xff)\n      and\n      dup4\n      dup1\n      add\n      or\n      dup6\n      sstore\n      jump(tag_141)\n    tag_143:\n      dup3\n      dup1\n      add\n      0x01\n      add\n      dup6\n      sstore\n      dup3\n      iszero\n      tag_141\n      jumpi\n      swap2\n      dup3\n      add\n    tag_144:\n      dup3\n      dup2\n      gt\n      iszero\n      tag_145\n      jumpi\n      dup3\n      mload\n      dup3\n      sstore\n      swap2\n      0x20\n      add\n      swap2\n      swap1\n      0x01\n      add\n      swap1\n      jump(tag_144)\n    tag_145:\n    tag_141:\n      pop\n      swap1\n      pop\n      tag_146\n      swap2\n      swap1\n      tag_147\n      jump\t// in\n    tag_146:\n      pop\n      swap1\n      jump\t// out\n    tag_147:\n    tag_148:\n      dup1\n      dup3\n      gt\n      iszero\n      tag_149\n      jumpi\n      0x00\n      dup2\n      0x00\n      swap1\n      sstore\n      pop\n      0x01\n      add\n      jump(tag_148)\n    tag_149:\n      pop\n      swap1\n      jump\t// out\n        /* \"#utility.yul\":7:84   */\n    tag_150:\n        /* \"#utility.yul\":44:51   */\n      0x00\n        /* \"#utility.yul\":73:78   */\n      dup2\n        /* \"#utility.yul\":62:78   */\n      swap1\n      pop\n        /* \"#utility.yul\":7:84   */\n      swap2\n      swap1\n      pop\n      jump\t// out\n        /* \"#utility.yul\":90:208   */\n    tag_151:\n        /* \"#utility.yul\":177:201   */\n      tag_176\n        /* \"#utility.yul\":195:200   */\n      dup2\n        /* \"#utility.yul\":177:201   */\n      tag_150\n      jump\t// in\n    tag_176:\n        /* \"#utility.yul\":172:175   */\n      dup3\n        /* \"#utility.yul\":165:202   */\n      mstore\n        /* \"#utility.yul\":90:208   */\n      pop\n      pop\n      jump\t// out\n        /* \"#utility.yul\":214:436   */\n    tag_21:\n        /* \"#utility.yul\":307:311   */\n      0x00\n        /* \"#utility.yul\":345:347   */\n      0x20\n        /* \"#utility.yul\":334:343   */\n      dup3\n        /* \"#utility.yul\":330:348   */\n      add\n        /* \"#utility.yul\":322:348   */\n      swap1\n      pop\n        /* \"#utility.yul\":358:429   */\n      tag_178\n        /* \"#utility.yul\":426:427   */\n      0x00\n        /* \"#utility.yul\":415:424   */\n      dup4\n        /* \"#utility.yul\":411:428   */\n      add\n        /* \"#utility.yul\":402:408   */\n      dup5\n        /* \"#utility.yul\":358:429   */\n      tag_151\n      jump\t// in\n    tag_178:\n        /* \"#utility.yul\":214:436   */\n      swap3\n      swap2\n      pop\n      pop\n      jump\t// out\n        /* \"#utility.yul\":442:541   */\n    tag_152:\n        /* \"#utility.yul\":494:500   */\n      0x00\n        /* \"#utility.yul\":528:533   */\n      dup2\n        /* \"#utility.yul\":522:534   */\n      mload\n        /* \"#utility.yul\":512:534   */\n      swap1\n      pop\n        /* \"#utility.yul\":442:541   */\n      swap2\n      swap1\n      pop\n      jump\t// out\n        /* \"#utility.yul\":547:716   */\n    tag_153:\n        /* \"#utility.yul\":631:642   */\n      0x00\n        /* \"#utility.yul\":665:671   */\n      dup3\n        /* \"#utility.yul\":660:663   */\n      dup3\n        /* \"#utility.yul\":653:672   */\n      mstore\n        /* \"#utility.yul\":705:709   */\n      0x20\n        /* \"#utility.yul\":700:703   */\n      dup3\n        /* \"#utility.yul\":696:710   */\n      add\n        /* \"#utility.yul\":681:710   */\n      swap1\n      pop\n        /* \"#utility.yul\":547:716   */\n      swap3\n      swap2\n      pop\n      pop\n      jump\t// out\n        /* \"#utility.yul\":722:1029   */\n    tag_154:\n        /* \"#utility.yul\":790:791   */\n      0x00\n        /* \"#utility.yul\":800:913   */\n    tag_182:\n        /* \"#utility.yul\":814:820   */\n      dup4\n        /* \"#utility.yul\":811:812   */\n      dup2\n        /* \"#utility.yul\":808:821   */\n      lt\n        /* \"#utility.yul\":800:913   */\n      iszero\n      tag_184\n      jumpi\n        /* \"#utility.yul\":899:900   */\n      dup1\n        /* \"#utility.yul\":894:897   */\n      dup3\n        /* \"#utility.yul\":890:901   */\n      add\n        /* \"#utility.yul\":884:902   */\n      mload\n        /* \"#utility.yul\":880:881   */\n      dup2\n        /* \"#utility.yul\":875:878   */\n      dup5\n        /* \"#utility.yul\":871:882   */\n      add\n        /* \"#utility.yul\":864:903   */\n      mstore\n        /* \"#utility.yul\":836:838   */\n      0x20\n        /* \"#utility.yul\":833:834   */\n      dup2\n        /* \"#utility.yul\":829:839   */\n      add\n        /* \"#utility.yul\":824:839   */\n      swap1\n      pop\n        /* \"#utility.yul\":800:913   */\n      jump(tag_182)\n    tag_184:\n        /* \"#utility.yul\":931:937   */\n      dup4\n        /* \"#utility.yul\":928:929   */\n      dup2\n        /* \"#utility.yul\":925:938   */\n      gt\n        /* \"#utility.yul\":922:1023   */\n      iszero\n      tag_185\n      jumpi\n        /* \"#utility.yul\":1011:1012   */\n      0x00\n        /* \"#utility.yul\":1002:1008   */\n      dup5\n        /* \"#utility.yul\":997:1000   */\n      dup5\n        /* \"#utility.yul\":993:1009   */\n      add\n        /* \"#utility.yul\":986:1013   */\n      mstore\n        /* \"#utility.yul\":922:1023   */\n    tag_185:\n        /* \"#utility.yul\":771:1029   */\n      pop\n        /* \"#utility.yul\":722:1029   */\n      pop\n      pop\n      pop\n      jump\t// out\n        /* \"#utility.yul\":1035:1137   */\n    tag_155:\n        /* \"#utility.yul\":1076:1082   */\n      0x00\n        /* \"#utility.yul\":1127:1129   */\n      0x1f\n        /* \"#utility.yul\":1123:1130   */\n      not\n        /* \"#utility.yul\":1118:1120   */\n      0x1f\n        /* \"#utility.yul\":1111:1116   */\n      dup4\n        /* \"#utility.yul\":1107:1121   */\n      add\n        /* \"#utility.yul\":1103:1131   */\n      and\n        /* \"#utility.yul\":1093:1131   */\n      swap1\n      pop\n        /* \"#utility.yul\":1035:1137   */\n      swap2\n      swap1\n      pop\n      jump\t// out\n        /* \"#utility.yul\":1143:1507   */\n    tag_156:\n        /* \"#utility.yul\":1231:1234   */\n      0x00\n        /* \"#utility.yul\":1259:1298   */\n      tag_188\n        /* \"#utility.yul\":1292:1297   */\n      dup3\n        /* \"#utility.yul\":1259:1298   */\n      tag_152\n      jump\t// in\n    tag_188:\n        /* \"#utility.yul\":1314:1385   */\n      tag_189\n        /* \"#utility.yul\":1378:1384   */\n      dup2\n        /* \"#utility.yul\":1373:1376   */\n      dup6\n        /* \"#utility.yul\":1314:1385   */\n      tag_153\n      jump\t// in\n    tag_189:\n        /* \"#utility.yul\":1307:1385   */\n      swap4\n      pop\n        /* \"#utility.yul\":1394:1446   */\n      tag_190\n        /* \"#utility.yul\":1439:1445   */\n      dup2\n        /* \"#utility.yul\":1434:1437   */\n      dup6\n        /* \"#utility.yul\":1427:1431   */\n      0x20\n        /* \"#utility.yul\":1420:1425   */\n      dup7\n        /* \"#utility.yul\":1416:1432   */\n      add\n        /* \"#utility.yul\":1394:1446   */\n      tag_154\n      jump\t// in\n    tag_190:\n        /* \"#utility.yul\":1471:1500   */\n      tag_191\n        /* \"#utility.yul\":1493:1499   */\n      dup2\n        /* \"#utility.yul\":1471:1500   */\n      tag_155\n      jump\t// in\n    tag_191:\n        /* \"#utility.yul\":1466:1469   */\n      dup5\n        /* \"#utility.yul\":1462:1501   */\n      add\n        /* \"#utility.yul\":1455:1501   */\n      swap2\n      pop\n        /* \"#utility.yul\":1235:1507   */\n      pop\n        /* \"#utility.yul\":1143:1507   */\n      swap3\n      swap2\n      pop\n      pop\n      jump\t// out\n        /* \"#utility.yul\":1513:1826   */\n    tag_25:\n        /* \"#utility.yul\":1626:1630   */\n      0x00\n        /* \"#utility.yul\":1664:1666   */\n      0x20\n        /* \"#utility.yul\":1653:1662   */\n      dup3\n        /* \"#utility.yul\":1649:1667   */\n      add\n        /* \"#utility.yul\":1641:1667   */\n      swap1\n      pop\n        /* \"#utility.yul\":1713:1722   */\n      dup2\n        /* \"#utility.yul\":1707:1711   */\n      dup2\n        /* \"#utility.yul\":1703:1723   */\n      sub\n        /* \"#utility.yul\":1699:1700   */\n      0x00\n        /* \"#utility.yul\":1688:1697   */\n      dup4\n        /* \"#utility.yul\":1684:1701   */\n      add\n        /* \"#utility.yul\":1677:1724   */\n      mstore\n        /* \"#utility.yul\":1741:1819   */\n      tag_193\n        /* \"#utility.yul\":1814:1818   */\n      dup2\n        /* \"#utility.yul\":1805:1811   */\n      dup5\n        /* \"#utility.yul\":1741:1819   */\n      tag_156\n      jump\t// in\n    tag_193:\n        /* \"#utility.yul\":1733:1819   */\n      swap1\n      pop\n        /* \"#utility.yul\":1513:1826   */\n      swap3\n      swap2\n      pop\n      pop\n      jump\t// out\n        /* \"#utility.yul\":1832:1907   */\n    tag_157:\n        /* \"#utility.yul\":1865:1871   */\n      0x00\n        /* \"#utility.yul\":1898:1900   */\n      0x40\n        /* \"#utility.yul\":1892:1901   */\n      mload\n        /* \"#utility.yul\":1882:1901   */\n      swap1\n      pop\n        /* \"#utility.yul\":1832:1907   */\n      swap1\n      jump\t// out\n        /* \"#utility.yul\":1913:2030   */\n    tag_158:\n        /* \"#utility.yul\":2022:2023   */\n      0x00\n        /* \"#utility.yul\":2019:2020   */\n      dup1\n        /* \"#utility.yul\":2012:2024   */\n      revert\n        /* \"#utility.yul\":2036:2153   */\n    tag_159:\n        /* \"#utility.yul\":2145:2146   */\n      0x00\n        /* \"#utility.yul\":2142:2143   */\n      dup1\n        /* \"#utility.yul\":2135:2147   */\n      revert\n        /* \"#utility.yul\":2159:2281   */\n    tag_160:\n        /* \"#utility.yul\":2232:2256   */\n      tag_198\n        /* \"#utility.yul\":2250:2255   */\n      dup2\n        /* \"#utility.yul\":2232:2256   */\n      tag_150\n      jump\t// in\n    tag_198:\n        /* \"#utility.yul\":2225:2230   */\n      dup2\n        /* \"#utility.yul\":2222:2257   */\n      eq\n        /* \"#utility.yul\":2212:2275   */\n      tag_199\n      jumpi\n        /* \"#utility.yul\":2271:2272   */\n      0x00\n        /* \"#utility.yul\":2268:2269   */\n      dup1\n        /* \"#utility.yul\":2261:2273   */\n      revert\n        /* \"#utility.yul\":2212:2275   */\n    tag_199:\n        /* \"#utility.yul\":2159:2281   */\n      pop\n      jump\t// out\n        /* \"#utility.yul\":2287:2426   */\n    tag_161:\n        /* \"#utility.yul\":2333:2338   */\n      0x00\n        /* \"#utility.yul\":2371:2377   */\n      dup2\n        /* \"#utility.yul\":2358:2378   */\n      calldataload\n        /* \"#utility.yul\":2349:2378   */\n      swap1\n      pop\n        /* \"#utility.yul\":2387:2420   */\n      tag_201\n        /* \"#utility.yul\":2414:2419   */\n      dup2\n        /* \"#utility.yul\":2387:2420   */\n      tag_160\n      jump\t// in\n    tag_201:\n        /* \"#utility.yul\":2287:2426   */\n      swap3\n      swap2\n      pop\n      pop\n      jump\t// out\n        /* \"#utility.yul\":2432:2761   */\n    tag_34:\n        /* \"#utility.yul\":2491:2497   */\n      0x00\n        /* \"#utility.yul\":2540:2542   */\n      0x20\n        /* \"#utility.yul\":2528:2537   */\n      dup3\n        /* \"#utility.yul\":2519:2526   */\n      dup5\n        /* \"#utility.yul\":2515:2538   */\n      sub\n        /* \"#utility.yul\":2511:2543   */\n      slt\n        /* \"#utility.yul\":2508:2627   */\n      iszero\n      tag_203\n      jumpi\n        /* \"#utility.yul\":2546:2625   */\n      tag_204\n      tag_158\n      jump\t// in\n    tag_204:\n        /* \"#utility.yul\":2508:2627   */\n    tag_203:\n        /* \"#utility.yul\":2666:2667   */\n      0x00\n        /* \"#utility.yul\":2691:2744   */\n      tag_205\n        /* \"#utility.yul\":2736:2743   */\n      dup5\n        /* \"#utility.yul\":2727:2733   */\n      dup3\n        /* \"#utility.yul\":2716:2725   */\n      dup6\n        /* \"#utility.yul\":2712:2734   */\n      add\n        /* \"#utility.yul\":2691:2744   */\n      tag_161\n      jump\t// in\n    tag_205:\n        /* \"#utility.yul\":2681:2744   */\n      swap2\n      pop\n        /* \"#utility.yul\":2637:2754   */\n      pop\n        /* \"#utility.yul\":2432:2761   */\n      swap3\n      swap2\n      pop\n      pop\n      jump\t// out\n        /* \"#utility.yul\":2767:3502   */\n    tag_37:\n        /* \"#utility.yul\":2984:2988   */\n      0x00\n        /* \"#utility.yul\":3022:3025   */\n      0x80\n        /* \"#utility.yul\":3011:3020   */\n      dup3\n        /* \"#utility.yul\":3007:3026   */\n      add\n        /* \"#utility.yul\":2999:3026   */\n      swap1\n      pop\n        /* \"#utility.yul\":3072:3081   */\n      dup2\n        /* \"#utility.yul\":3066:3070   */\n      dup2\n        /* \"#utility.yul\":3062:3082   */\n      sub\n        /* \"#utility.yul\":3058:3059   */\n      0x00\n        /* \"#utility.yul\":3047:3056   */\n      dup4\n        /* \"#utility.yul\":3043:3060   */\n      add\n        /* \"#utility.yul\":3036:3083   */\n      mstore\n        /* \"#utility.yul\":3100:3178   */\n      tag_207\n        /* \"#utility.yul\":3173:3177   */\n      dup2\n        /* \"#utility.yul\":3164:3170   */\n      dup8\n        /* \"#utility.yul\":3100:3178   */\n      tag_156\n      jump\t// in\n    tag_207:\n        /* \"#utility.yul\":3092:3178   */\n      swap1\n      pop\n        /* \"#utility.yul\":3188:3260   */\n      tag_208\n        /* \"#utility.yul\":3256:3258   */\n      0x20\n        /* \"#utility.yul\":3245:3254   */\n      dup4\n        /* \"#utility.yul\":3241:3259   */\n      add\n        /* \"#utility.yul\":3232:3238   */\n      dup7\n        /* \"#utility.yul\":3188:3260   */\n      tag_151\n      jump\t// in\n    tag_208:\n        /* \"#utility.yul\":3270:3342   */\n      tag_209\n        /* \"#utility.yul\":3338:3340   */\n      0x40\n        /* \"#utility.yul\":3327:3336   */\n      dup4\n        /* \"#utility.yul\":3323:3341   */\n      add\n        /* \"#utility.yul\":3314:3320   */\n      dup6\n        /* \"#utility.yul\":3270:3342   */\n      tag_151\n      jump\t// in\n    tag_209:\n        /* \"#utility.yul\":3389:3398   */\n      dup2\n        /* \"#utility.yul\":3383:3387   */\n      dup2\n        /* \"#utility.yul\":3379:3399   */\n      sub\n        /* \"#utility.yul\":3374:3376   */\n      0x60\n        /* \"#utility.yul\":3363:3372   */\n      dup4\n        /* \"#utility.yul\":3359:3377   */\n      add\n        /* \"#utility.yul\":3352:3400   */\n      mstore\n        /* \"#utility.yul\":3417:3495   */\n      tag_210\n        /* \"#utility.yul\":3490:3494   */\n      dup2\n        /* \"#utility.yul\":3481:3487   */\n      dup5\n        /* \"#utility.yul\":3417:3495   */\n      tag_156\n      jump\t// in\n    tag_210:\n        /* \"#utility.yul\":3409:3495   */\n      swap1\n      pop\n        /* \"#utility.yul\":2767:3502   */\n      swap6\n      swap5\n      pop\n      pop\n      pop\n      pop\n      pop\n      jump\t// out\n        /* \"#utility.yul\":3508:3625   */\n    tag_162:\n        /* \"#utility.yul\":3617:3618   */\n      0x00\n        /* \"#utility.yul\":3614:3615   */\n      dup1\n        /* \"#utility.yul\":3607:3619   */\n      revert\n        /* \"#utility.yul\":3631:3748   */\n    tag_163:\n        /* \"#utility.yul\":3740:3741   */\n      0x00\n        /* \"#utility.yul\":3737:3738   */\n      dup1\n        /* \"#utility.yul\":3730:3742   */\n      revert\n        /* \"#utility.yul\":3754:3934   */\n    tag_164:\n        /* \"#utility.yul\":3802:3879   */\n      0x4e487b7100000000000000000000000000000000000000000000000000000000\n        /* \"#utility.yul\":3799:3800   */\n      0x00\n        /* \"#utility.yul\":3792:3880   */\n      mstore\n        /* \"#utility.yul\":3899:3903   */\n      0x41\n        /* \"#utility.yul\":3896:3897   */\n      0x04\n        /* \"#utility.yul\":3889:3904   */\n      mstore\n        /* \"#utility.yul\":3923:3927   */\n      0x24\n        /* \"#utility.yul\":3920:3921   */\n      0x00\n        /* \"#utility.yul\":3913:3928   */\n      revert\n        /* \"#utility.yul\":3940:4221   */\n    tag_165:\n        /* \"#utility.yul\":4023:4050   */\n      tag_215\n        /* \"#utility.yul\":4045:4049   */\n      dup3\n        /* \"#utility.yul\":4023:4050   */\n      tag_155\n      jump\t// in\n    tag_215:\n        /* \"#utility.yul\":4015:4021   */\n      dup2\n        /* \"#utility.yul\":4011:4051   */\n      add\n        /* \"#utility.yul\":4153:4159   */\n      dup2\n        /* \"#utility.yul\":4141:4151   */\n      dup2\n        /* \"#utility.yul\":4138:4160   */\n      lt\n        /* \"#utility.yul\":4117:4135   */\n      0xffffffffffffffff\n        /* \"#utility.yul\":4105:4115   */\n      dup3\n        /* \"#utility.yul\":4102:4136   */\n      gt\n        /* \"#utility.yul\":4099:4161   */\n      or\n        /* \"#utility.yul\":4096:4184   */\n      iszero\n      tag_216\n      jumpi\n        /* \"#utility.yul\":4164:4182   */\n      tag_217\n      tag_164\n      jump\t// in\n    tag_217:\n        /* \"#utility.yul\":4096:4184   */\n    tag_216:\n        /* \"#utility.yul\":4204:4214   */\n      dup1\n        /* \"#utility.yul\":4200:4202   */\n      0x40\n        /* \"#utility.yul\":4193:4215   */\n      mstore\n        /* \"#utility.yul\":3983:4221   */\n      pop\n        /* \"#utility.yul\":3940:4221   */\n      pop\n      pop\n      jump\t// out\n        /* \"#utility.yul\":4227:4356   */\n    tag_166:\n        /* \"#utility.yul\":4261:4267   */\n      0x00\n        /* \"#utility.yul\":4288:4308   */\n      tag_219\n      tag_157\n      jump\t// in\n    tag_219:\n        /* \"#utility.yul\":4278:4308   */\n      swap1\n      pop\n        /* \"#utility.yul\":4317:4350   */\n      tag_220\n        /* \"#utility.yul\":4345:4349   */\n      dup3\n        /* \"#utility.yul\":4337:4343   */\n      dup3\n        /* \"#utility.yul\":4317:4350   */\n      tag_165\n      jump\t// in\n    tag_220:\n        /* \"#utility.yul\":4227:4356   */\n      swap2\n      swap1\n      pop\n      jump\t// out\n        /* \"#utility.yul\":4362:4670   */\n    tag_167:\n        /* \"#utility.yul\":4424:4428   */\n      0x00\n        /* \"#utility.yul\":4514:4532   */\n      0xffffffffffffffff\n        /* \"#utility.yul\":4506:4512   */\n      dup3\n        /* \"#utility.yul\":4503:4533   */\n      gt\n        /* \"#utility.yul\":4500:4556   */\n      iszero\n      tag_222\n      jumpi\n        /* \"#utility.yul\":4536:4554   */\n      tag_223\n      tag_164\n      jump\t// in\n    tag_223:\n        /* \"#utility.yul\":4500:4556   */\n    tag_222:\n        /* \"#utility.yul\":4574:4603   */\n      tag_224\n        /* \"#utility.yul\":4596:4602   */\n      dup3\n        /* \"#utility.yul\":4574:4603   */\n      tag_155\n      jump\t// in\n    tag_224:\n        /* \"#utility.yul\":4566:4603   */\n      swap1\n      pop\n        /* \"#utility.yul\":4658:4662   */\n      0x20\n        /* \"#utility.yul\":4652:4656   */\n      dup2\n        /* \"#utility.yul\":4648:4663   */\n      add\n        /* \"#utility.yul\":4640:4663   */\n      swap1\n      pop\n        /* \"#utility.yul\":4362:4670   */\n      swap2\n      swap1\n      pop\n      jump\t// out\n        /* \"#utility.yul\":4676:4830   */\n    tag_168:\n        /* \"#utility.yul\":4760:4766   */\n      dup3\n        /* \"#utility.yul\":4755:4758   */\n      dup2\n        /* \"#utility.yul\":4750:4753   */\n      dup4\n        /* \"#utility.yul\":4737:4767   */\n      calldatacopy\n        /* \"#utility.yul\":4822:4823   */\n      0x00\n        /* \"#utility.yul\":4813:4819   */\n      dup4\n        /* \"#utility.yul\":4808:4811   */\n      dup4\n        /* \"#utility.yul\":4804:4820   */\n      add\n        /* \"#utility.yul\":4797:4824   */\n      mstore\n        /* \"#utility.yul\":4676:4830   */\n      pop\n      pop\n      pop\n      jump\t// out\n        /* \"#utility.yul\":4836:5248   */\n    tag_169:\n        /* \"#utility.yul\":4914:4919   */\n      0x00\n        /* \"#utility.yul\":4939:5005   */\n      tag_227\n        /* \"#utility.yul\":4955:5004   */\n      tag_228\n        /* \"#utility.yul\":4997:5003   */\n      dup5\n        /* \"#utility.yul\":4955:5004   */\n      tag_167\n      jump\t// in\n    tag_228:\n        /* \"#utility.yul\":4939:5005   */\n      tag_166\n      jump\t// in\n    tag_227:\n        /* \"#utility.yul\":4930:5005   */\n      swap1\n      pop\n        /* \"#utility.yul\":5028:5034   */\n      dup3\n        /* \"#utility.yul\":5021:5026   */\n      dup2\n        /* \"#utility.yul\":5014:5035   */\n      mstore\n        /* \"#utility.yul\":5066:5070   */\n      0x20\n        /* \"#utility.yul\":5059:5064   */\n      dup2\n        /* \"#utility.yul\":5055:5071   */\n      add\n        /* \"#utility.yul\":5104:5107   */\n      dup5\n        /* \"#utility.yul\":5095:5101   */\n      dup5\n        /* \"#utility.yul\":5090:5093   */\n      dup5\n        /* \"#utility.yul\":5086:5102   */\n      add\n        /* \"#utility.yul\":5083:5108   */\n      gt\n        /* \"#utility.yul\":5080:5192   */\n      iszero\n      tag_229\n      jumpi\n        /* \"#utility.yul\":5111:5190   */\n      tag_230\n      tag_163\n      jump\t// in\n    tag_230:\n        /* \"#utility.yul\":5080:5192   */\n    tag_229:\n        /* \"#utility.yul\":5201:5242   */\n      tag_231\n        /* \"#utility.yul\":5235:5241   */\n      dup5\n        /* \"#utility.yul\":5230:5233   */\n      dup3\n        /* \"#utility.yul\":5225:5228   */\n      dup6\n        /* \"#utility.yul\":5201:5242   */\n      tag_168\n      jump\t// in\n    tag_231:\n        /* \"#utility.yul\":4920:5248   */\n      pop\n        /* \"#utility.yul\":4836:5248   */\n      swap4\n      swap3\n      pop\n      pop\n      pop\n      jump\t// out\n        /* \"#utility.yul\":5268:5608   */\n    tag_170:\n        /* \"#utility.yul\":5324:5329   */\n      0x00\n        /* \"#utility.yul\":5373:5376   */\n      dup3\n        /* \"#utility.yul\":5366:5370   */\n      0x1f\n        /* \"#utility.yul\":5358:5364   */\n      dup4\n        /* \"#utility.yul\":5354:5371   */\n      add\n        /* \"#utility.yul\":5350:5377   */\n      slt\n        /* \"#utility.yul\":5340:5462   */\n      tag_233\n      jumpi\n        /* \"#utility.yul\":5381:5460   */\n      tag_234\n      tag_162\n      jump\t// in\n    tag_234:\n        /* \"#utility.yul\":5340:5462   */\n    tag_233:\n        /* \"#utility.yul\":5498:5504   */\n      dup2\n        /* \"#utility.yul\":5485:5505   */\n      calldataload\n        /* \"#utility.yul\":5523:5602   */\n      tag_235\n        /* \"#utility.yul\":5598:5601   */\n      dup5\n        /* \"#utility.yul\":5590:5596   */\n      dup3\n        /* \"#utility.yul\":5583:5587   */\n      0x20\n        /* \"#utility.yul\":5575:5581   */\n      dup7\n        /* \"#utility.yul\":5571:5588   */\n      add\n        /* \"#utility.yul\":5523:5602   */\n      tag_169\n      jump\t// in\n    tag_235:\n        /* \"#utility.yul\":5514:5602   */\n      swap2\n      pop\n        /* \"#utility.yul\":5330:5608   */\n      pop\n        /* \"#utility.yul\":5268:5608   */\n      swap3\n      swap2\n      pop\n      pop\n      jump\t// out\n        /* \"#utility.yul\":5614:6268   */\n    tag_44:\n        /* \"#utility.yul\":5692:5698   */\n      0x00\n        /* \"#utility.yul\":5700:5706   */\n      dup1\n        /* \"#utility.yul\":5749:5751   */\n      0x40\n        /* \"#utility.yul\":5737:5746   */\n      dup4\n        /* \"#utility.yul\":5728:5735   */\n      dup6\n        /* \"#utility.yul\":5724:5747   */\n      sub\n        /* \"#utility.yul\":5720:5752   */\n      slt\n        /* \"#utility.yul\":5717:5836   */\n      iszero\n      tag_237\n      jumpi\n        /* \"#utility.yul\":5755:5834   */\n      tag_238\n      tag_158\n      jump\t// in\n    tag_238:\n        /* \"#utility.yul\":5717:5836   */\n    tag_237:\n        /* \"#utility.yul\":5875:5876   */\n      0x00\n        /* \"#utility.yul\":5900:5953   */\n      tag_239\n        /* \"#utility.yul\":5945:5952   */\n      dup6\n        /* \"#utility.yul\":5936:5942   */\n      dup3\n        /* \"#utility.yul\":5925:5934   */\n      dup7\n        /* \"#utility.yul\":5921:5943   */\n      add\n        /* \"#utility.yul\":5900:5953   */\n      tag_161\n      jump\t// in\n    tag_239:\n        /* \"#utility.yul\":5890:5953   */\n      swap3\n      pop\n        /* \"#utility.yul\":5846:5963   */\n      pop\n        /* \"#utility.yul\":6030:6032   */\n      0x20\n        /* \"#utility.yul\":6019:6028   */\n      dup4\n        /* \"#utility.yul\":6015:6033   */\n      add\n        /* \"#utility.yul\":6002:6034   */\n      calldataload\n        /* \"#utility.yul\":6061:6079   */\n      0xffffffffffffffff\n        /* \"#utility.yul\":6053:6059   */\n      dup2\n        /* \"#utility.yul\":6050:6080   */\n      gt\n        /* \"#utility.yul\":6047:6164   */\n      iszero\n      tag_240\n      jumpi\n        /* \"#utility.yul\":6083:6162   */\n      tag_241\n      tag_159\n      jump\t// in\n    tag_241:\n        /* \"#utility.yul\":6047:6164   */\n    tag_240:\n        /* \"#utility.yul\":6188:6251   */\n      tag_242\n        /* \"#utility.yul\":6243:6250   */\n      dup6\n        /* \"#utility.yul\":6234:6240   */\n      dup3\n        /* \"#utility.yul\":6223:6232   */\n      dup7\n        /* \"#utility.yul\":6219:6241   */\n      add\n        /* \"#utility.yul\":6188:6251   */\n      tag_170\n      jump\t// in\n    tag_242:\n        /* \"#utility.yul\":6178:6251   */\n      swap2\n      pop\n        /* \"#utility.yul\":5973:6261   */\n      pop\n        /* \"#utility.yul\":5614:6268   */\n      swap3\n      pop\n      swap3\n      swap1\n      pop\n      jump\t// out\n        /* \"#utility.yul\":6274:7253   */\n    tag_48:\n        /* \"#utility.yul\":6371:6377   */\n      0x00\n        /* \"#utility.yul\":6379:6385   */\n      dup1\n        /* \"#utility.yul\":6387:6393   */\n      0x00\n        /* \"#utility.yul\":6436:6438   */\n      0x60\n        /* \"#utility.yul\":6424:6433   */\n      dup5\n        /* \"#utility.yul\":6415:6422   */\n      dup7\n        /* \"#utility.yul\":6411:6434   */\n      sub\n        /* \"#utility.yul\":6407:6439   */\n      slt\n        /* \"#utility.yul\":6404:6523   */\n      iszero\n      tag_244\n      jumpi\n        /* \"#utility.yul\":6442:6521   */\n      tag_245\n      tag_158\n      jump\t// in\n    tag_245:\n        /* \"#utility.yul\":6404:6523   */\n    tag_244:\n        /* \"#utility.yul\":6590:6591   */\n      0x00\n        /* \"#utility.yul\":6579:6588   */\n      dup5\n        /* \"#utility.yul\":6575:6592   */\n      add\n        /* \"#utility.yul\":6562:6593   */\n      calldataload\n        /* \"#utility.yul\":6620:6638   */\n      0xffffffffffffffff\n        /* \"#utility.yul\":6612:6618   */\n      dup2\n        /* \"#utility.yul\":6609:6639   */\n      gt\n        /* \"#utility.yul\":6606:6723   */\n      iszero\n      tag_246\n      jumpi\n        /* \"#utility.yul\":6642:6721   */\n      tag_247\n      tag_159\n      jump\t// in\n    tag_247:\n        /* \"#utility.yul\":6606:6723   */\n    tag_246:\n        /* \"#utility.yul\":6747:6810   */\n      tag_248\n        /* \"#utility.yul\":6802:6809   */\n      dup7\n        /* \"#utility.yul\":6793:6799   */\n      dup3\n        /* \"#utility.yul\":6782:6791   */\n      dup8\n        /* \"#utility.yul\":6778:6800   */\n      add\n        /* \"#utility.yul\":6747:6810   */\n      tag_170\n      jump\t// in\n    tag_248:\n        /* \"#utility.yul\":6737:6810   */\n      swap4\n      pop\n        /* \"#utility.yul\":6533:6820   */\n      pop\n        /* \"#utility.yul\":6859:6861   */\n      0x20\n        /* \"#utility.yul\":6885:6938   */\n      tag_249\n        /* \"#utility.yul\":6930:6937   */\n      dup7\n        /* \"#utility.yul\":6921:6927   */\n      dup3\n        /* \"#utility.yul\":6910:6919   */\n      dup8\n        /* \"#utility.yul\":6906:6928   */\n      add\n        /* \"#utility.yul\":6885:6938   */\n      tag_161\n      jump\t// in\n    tag_249:\n        /* \"#utility.yul\":6875:6938   */\n      swap3\n      pop\n        /* \"#utility.yul\":6830:6948   */\n      pop\n        /* \"#utility.yul\":7015:7017   */\n      0x40\n        /* \"#utility.yul\":7004:7013   */\n      dup5\n        /* \"#utility.yul\":7000:7018   */\n      add\n        /* \"#utility.yul\":6987:7019   */\n      calldataload\n        /* \"#utility.yul\":7046:7064   */\n      0xffffffffffffffff\n        /* \"#utility.yul\":7038:7044   */\n      dup2\n        /* \"#utility.yul\":7035:7065   */\n      gt\n        /* \"#utility.yul\":7032:7149   */\n      iszero\n      tag_250\n      jumpi\n        /* \"#utility.yul\":7068:7147   */\n      tag_251\n      tag_159\n      jump\t// in\n    tag_251:\n        /* \"#utility.yul\":7032:7149   */\n    tag_250:\n        /* \"#utility.yul\":7173:7236   */\n      tag_252\n        /* \"#utility.yul\":7228:7235   */\n      dup7\n        /* \"#utility.yul\":7219:7225   */\n      dup3\n        /* \"#utility.yul\":7208:7217   */\n      dup8\n        /* \"#utility.yul\":7204:7226   */\n      add\n        /* \"#utility.yul\":7173:7236   */\n      tag_170\n      jump\t// in\n    tag_252:\n        /* \"#utility.yul\":7163:7236   */\n      swap2\n      pop\n        /* \"#utility.yul\":6958:7246   */\n      pop\n        /* \"#utility.yul\":6274:7253   */\n      swap3\n      pop\n      swap3\n      pop\n      swap3\n      jump\t// out\n        /* \"#utility.yul\":7259:7792   */\n    tag_57:\n        /* \"#utility.yul\":7428:7432   */\n      0x00\n        /* \"#utility.yul\":7466:7468   */\n      0x60\n        /* \"#utility.yul\":7455:7464   */\n      dup3\n        /* \"#utility.yul\":7451:7469   */\n      add\n        /* \"#utility.yul\":7443:7469   */\n      swap1\n      pop\n        /* \"#utility.yul\":7479:7550   */\n      tag_254\n        /* \"#utility.yul\":7547:7548   */\n      0x00\n        /* \"#utility.yul\":7536:7545   */\n      dup4\n        /* \"#utility.yul\":7532:7549   */\n      add\n        /* \"#utility.yul\":7523:7529   */\n      dup7\n        /* \"#utility.yul\":7479:7550   */\n      tag_151\n      jump\t// in\n    tag_254:\n        /* \"#utility.yul\":7560:7632   */\n      tag_255\n        /* \"#utility.yul\":7628:7630   */\n      0x20\n        /* \"#utility.yul\":7617:7626   */\n      dup4\n        /* \"#utility.yul\":7613:7631   */\n      add\n        /* \"#utility.yul\":7604:7610   */\n      dup6\n        /* \"#utility.yul\":7560:7632   */\n      tag_151\n      jump\t// in\n    tag_255:\n        /* \"#utility.yul\":7679:7688   */\n      dup2\n        /* \"#utility.yul\":7673:7677   */\n      dup2\n        /* \"#utility.yul\":7669:7689   */\n      sub\n        /* \"#utility.yul\":7664:7666   */\n      0x40\n        /* \"#utility.yul\":7653:7662   */\n      dup4\n        /* \"#utility.yul\":7649:7667   */\n      add\n        /* \"#utility.yul\":7642:7690   */\n      mstore\n        /* \"#utility.yul\":7707:7785   */\n      tag_256\n        /* \"#utility.yul\":7780:7784   */\n      dup2\n        /* \"#utility.yul\":7771:7777   */\n      dup5\n        /* \"#utility.yul\":7707:7785   */\n      tag_156\n      jump\t// in\n    tag_256:\n        /* \"#utility.yul\":7699:7785   */\n      swap1\n      pop\n        /* \"#utility.yul\":7259:7792   */\n      swap5\n      swap4\n      pop\n      pop\n      pop\n      pop\n      jump\t// out\n        /* \"#utility.yul\":7798:7978   */\n    tag_171:\n        /* \"#utility.yul\":7846:7923   */\n      0x4e487b7100000000000000000000000000000000000000000000000000000000\n        /* \"#utility.yul\":7843:7844   */\n      0x00\n        /* \"#utility.yul\":7836:7924   */\n      mstore\n        /* \"#utility.yul\":7943:7947   */\n      0x22\n        /* \"#utility.yul\":7940:7941   */\n      0x04\n        /* \"#utility.yul\":7933:7948   */\n      mstore\n        /* \"#utility.yul\":7967:7971   */\n      0x24\n        /* \"#utility.yul\":7964:7965   */\n      0x00\n        /* \"#utility.yul\":7957:7972   */\n      revert\n        /* \"#utility.yul\":7984:8304   */\n    tag_69:\n        /* \"#utility.yul\":8028:8034   */\n      0x00\n        /* \"#utility.yul\":8065:8066   */\n      0x02\n        /* \"#utility.yul\":8059:8063   */\n      dup3\n        /* \"#utility.yul\":8055:8067   */\n      div\n        /* \"#utility.yul\":8045:8067   */\n      swap1\n      pop\n        /* \"#utility.yul\":8112:8113   */\n      0x01\n        /* \"#utility.yul\":8106:8110   */\n      dup3\n        /* \"#utility.yul\":8102:8114   */\n      and\n        /* \"#utility.yul\":8133:8151   */\n      dup1\n        /* \"#utility.yul\":8123:8204   */\n      tag_259\n      jumpi\n        /* \"#utility.yul\":8189:8193   */\n      0x7f\n        /* \"#utility.yul\":8181:8187   */\n      dup3\n        /* \"#utility.yul\":8177:8194   */\n      and\n        /* \"#utility.yul\":8167:8194   */\n      swap2\n      pop\n        /* \"#utility.yul\":8123:8204   */\n    tag_259:\n        /* \"#utility.yul\":8251:8253   */\n      0x20\n        /* \"#utility.yul\":8243:8249   */\n      dup3\n        /* \"#utility.yul\":8240:8254   */\n      lt\n        /* \"#utility.yul\":8220:8238   */\n      dup2\n        /* \"#utility.yul\":8217:8255   */\n      sub\n        /* \"#utility.yul\":8214:8298   */\n      tag_260\n      jumpi\n        /* \"#utility.yul\":8270:8288   */\n      tag_261\n      tag_171\n      jump\t// in\n    tag_261:\n        /* \"#utility.yul\":8214:8298   */\n    tag_260:\n        /* \"#utility.yul\":8035:8304   */\n      pop\n        /* \"#utility.yul\":7984:8304   */\n      swap2\n      swap1\n      pop\n      jump\t// out\n        /* \"#utility.yul\":8310:8490   */\n    tag_95:\n        /* \"#utility.yul\":8358:8435   */\n      0x4e487b7100000000000000000000000000000000000000000000000000000000\n        /* \"#utility.yul\":8355:8356   */\n      0x00\n        /* \"#utility.yul\":8348:8436   */\n      mstore\n        /* \"#utility.yul\":8455:8459   */\n      0x32\n        /* \"#utility.yul\":8452:8453   */\n      0x04\n        /* \"#utility.yul\":8445:8460   */\n      mstore\n        /* \"#utility.yul\":8479:8483   */\n      0x24\n        /* \"#utility.yul\":8476:8477   */\n      0x00\n        /* \"#utility.yul\":8469:8484   */\n      revert\n        /* \"#utility.yul\":8496:8676   */\n    tag_172:\n        /* \"#utility.yul\":8544:8621   */\n      0x4e487b7100000000000000000000000000000000000000000000000000000000\n        /* \"#utility.yul\":8541:8542   */\n      0x00\n        /* \"#utility.yul\":8534:8622   */\n      mstore\n        /* \"#utility.yul\":8641:8645   */\n      0x11\n        /* \"#utility.yul\":8638:8639   */\n      0x04\n        /* \"#utility.yul\":8631:8646   */\n      mstore\n        /* \"#utility.yul\":8665:8669   */\n      0x24\n        /* \"#utility.yul\":8662:8663   */\n      0x00\n        /* \"#utility.yul\":8655:8670   */\n      revert\n        /* \"#utility.yul\":8682:8987   */\n    tag_112:\n        /* \"#utility.yul\":8722:8725   */\n      0x00\n        /* \"#utility.yul\":8741:8761   */\n      tag_265\n        /* \"#utility.yul\":8759:8760   */\n      dup3\n        /* \"#utility.yul\":8741:8761   */\n      tag_150\n      jump\t// in\n    tag_265:\n        /* \"#utility.yul\":8736:8761   */\n      swap2\n      pop\n        /* \"#utility.yul\":8775:8795   */\n      tag_266\n        /* \"#utility.yul\":8793:8794   */\n      dup4\n        /* \"#utility.yul\":8775:8795   */\n      tag_150\n      jump\t// in\n    tag_266:\n        /* \"#utility.yul\":8770:8795   */\n      swap3\n      pop\n        /* \"#utility.yul\":8929:8930   */\n      dup3\n        /* \"#utility.yul\":8861:8927   */\n      0xffffffffffffffffffffffffffffffffffffffffffffffffffffffffffffffff\n        /* \"#utility.yul\":8857:8931   */\n      sub\n        /* \"#utility.yul\":8854:8855   */\n      dup3\n        /* \"#utility.yul\":8851:8932   */\n      gt\n        /* \"#utility.yul\":8848:8955   */\n      iszero\n      tag_267\n      jumpi\n        /* \"#utility.yul\":8935:8953   */\n      tag_268\n      tag_172\n      jump\t// in\n    tag_268:\n        /* \"#utility.yul\":8848:8955   */\n    tag_267:\n        /* \"#utility.yul\":8979:8980   */\n      dup3\n        /* \"#utility.yul\":8976:8977   */\n      dup3\n        /* \"#utility.yul\":8972:8981   */\n      add\n        /* \"#utility.yul\":8965:8981   */\n      swap1\n      pop\n        /* \"#utility.yul\":8682:8987   */\n      swap3\n      swap2\n      pop\n      pop\n      jump\t// out\n\n    auxdata: 0xa264697066735822122036b57bca20d363e91c12422fbb92d7057ba83568be33c88eb1eed85305a578e364736f6c634300080d0033\n}\n","bytecode":{"linkReferences":{},"object":"60806040523480156200001157600080fd5b5060405162001461380380620014618339818101604052810190620000379190620002d8565b82600090805190602001906200004f9291906200008b565b508160019080519060200190620000689291906200008b565b508060029080519060200190620000819291906200008b565b50505050620003f5565b8280546200009990620003c0565b90600052602060002090601f016020900481019282620000bd576000855562000109565b82601f10620000d857805160ff191683800117855562000109565b8280016001018555821562000109579182015b8281111562000108578251825591602001919060010190620000eb565b5b5090506200011891906200011c565b5090565b5b80821115620001375760008160009055506001016200011d565b5090565b6000604051905090565b600080fd5b600080fd5b600080fd5b600080fd5b6000601f19601f8301169050919050565b7f4e487b7100000000000000000000000000000000000000000000000000000000600052604160045260246000fd5b620001a48262000159565b810181811067ffffffffffffffff82111715620001c657620001c56200016a565b5b80604052505050565b6000620001db6200013b565b9050620001e9828262000199565b919050565b600067ffffffffffffffff8211156200020c576200020b6200016a565b5b620002178262000159565b9050602081019050919050565b60005b838110156200024457808201518184015260208101905062000227565b8381111562000254576000848401525b50505050565b6000620002716200026b84620001ee565b620001cf565b90508281526020810184848401111562000290576200028f62000154565b5b6200029d84828562000224565b509392505050565b600082601f830112620002bd57620002bc6200014f565b5b8151620002cf8482602086016200025a565b91505092915050565b600080600060608486031215620002f457620002f362000145565b5b600084015167ffffffffffffffff8111156200031557620003146200014a565b5b6200032386828701620002a5565b935050602084015167ffffffffffffffff8111156200034757620003466200014a565b5b6200035586828701620002a5565b925050604084015167ffffffffffffffff8111156200037957620003786200014a565b5b6200038786828701620002a5565b9150509250925092565b7f4e487b7100000000000000000000000000000000000000000000000000000000600052602260045260246000fd5b60006002820490506001821680620003d957607f821691505b602082108103620003ef57620003ee62000391565b5b50919050565b61105c80620004056000396000f3fe608060405234801561001057600080fd5b50600436106100ce5760003560e01c8063d6695c9b1161008c578063ef07a81f11610066578063ef07a81f14610207578063ef430aa614610239578063f8626af814610257578063fb346eab14610289576100ce565b8063d6695c9b146101b1578063e1a50aaf146101cd578063e55a62a8146101e9576100ce565b8062b37044146100d35780633c4101fb146100f15780634a79d50c1461010f578063656a42be1461012d578063b5285d831461014b578063c4257beb1461017e575b600080fd5b6100db6102a7565b6040516100e89190610b22565b60405180910390f35b6100f96102ad565b6040516101069190610bd6565b60405180910390f35b61011761033b565b6040516101249190610bd6565b60405180910390f35b6101356103c9565b6040516101429190610b22565b60405180910390f35b61016560048036038101906101609190610c38565b6103d6565b6040516101759493929190610c65565b60405180910390f35b61019860048036038101906101939190610c38565b610526565b6040516101a89493929190610c65565b60405180910390f35b6101cb60048036038101906101c69190610ded565b6106ba565b005b6101e760048036038101906101e29190610e49565b610750565b005b6101f161080a565b6040516101fe9190610b22565b60405180910390f35b610221600480360381019061021c9190610c38565b610817565b60405161023093929190610ed4565b60405180910390f35b610241610910565b60405161024e9190610bd6565b60405180910390f35b610271600480360381019061026c9190610c38565b61099e565b60405161028093929190610ed4565b60405180910390f35b610291610a60565b60405161029e9190610b22565b60405180910390f35b60055481565b600280546102ba90610f41565b80601f01602080910402602001604051908101604052809291908181526020018280546102e690610f41565b80156103335780601f1061030857610100808354040283529160200191610333565b820191906000526020600020905b81548152906001019060200180831161031657829003601f168201915b505050505081565b6000805461034890610f41565b80601f016020809104026020016040519081016040528092919081815260200182805461037490610f41565b80156103c15780601f10610396576101008083540402835291602001916103c1565b820191906000526020600020905b8154815290600101906020018083116103a457829003601f168201915b505050505081565b6000600480549050905090565b600481815481106103e657600080fd5b906000526020600020906004020160009150905080600001805461040990610f41565b80601f016020809104026020016040519081016040528092919081815260200182805461043590610f41565b80156104825780601f1061045757610100808354040283529160200191610482565b820191906000526020600020905b81548152906001019060200180831161046557829003601f168201915b5050505050908060010154908060020154908060030180546104a390610f41565b80601f01602080910402602001604051908101604052809291908181526020018280546104cf90610f41565b801561051c5780601f106104f15761010080835404028352916020019161051c565b820191906000526020600020905b8154815290600101906020018083116104ff57829003601f168201915b5050505050905084565b6060600080606060006004868154811061054357610542610f72565b5b906000526020600020906004020160405180608001604052908160008201805461056c90610f41565b80601f016020809104026020016040519081016040528092919081815260200182805461059890610f41565b80156105e55780601f106105ba576101008083540402835291602001916105e5565b820191906000526020600020905b8154815290600101906020018083116105c857829003601f168201915b50505050508152602001600182015481526020016002820154815260200160038201805461061290610f41565b80601f016020809104026020016040519081016040528092919081815260200182805461063e90610f41565b801561068b5780601f106106605761010080835404028352916020019161068b565b820191906000526020600020905b81548152906001019060200180831161066e57829003601f168201915b505050505081525050905080600001518160200151826040015183606001519450945094509450509193509193565b6003604051806060016040528084815260200142815260200183815250908060018154018082558091505060019003906000526020600020906003020160009091909190915060008201518160000155602082015181600101556040820151816002019080519060200190610730929190610a66565b50505081600560008282546107459190610fd0565b925050819055505050565b6004604051806080016040528085815260200184815260200142815260200183815250908060018154018082558091505060019003906000526020600020906004020160009091909190915060008201518160000190805190602001906107b8929190610a66565b50602082015181600101556040820151816002015560608201518160030190805190602001906107e9929190610a66565b50505081600660008282546107fe9190610fd0565b92505081905550505050565b6000600380549050905090565b600080606060006003858154811061083257610831610f72565b5b9060005260206000209060030201604051806060016040529081600082015481526020016001820154815260200160028201805461086f90610f41565b80601f016020809104026020016040519081016040528092919081815260200182805461089b90610f41565b80156108e85780601f106108bd576101008083540402835291602001916108e8565b820191906000526020600020905b8154815290600101906020018083116108cb57829003601f168201915b5050505050815250509050806000015181602001518260400151935093509350509193909250565b6001805461091d90610f41565b80601f016020809104026020016040519081016040528092919081815260200182805461094990610f41565b80156109965780601f1061096b57610100808354040283529160200191610996565b820191906000526020600020905b81548152906001019060200180831161097957829003601f168201915b505050505081565b600381815481106109ae57600080fd5b90600052602060002090600302016000915090508060000154908060010154908060020180546109dd90610f41565b80601f0160208091040260200160405190810160405280929190818152602001828054610a0990610f41565b8015610a565780601f10610a2b57610100808354040283529160200191610a56565b820191906000526020600020905b815481529060010190602001808311610a3957829003601f168201915b5050505050905083565b60065481565b828054610a7290610f41565b90600052602060002090601f016020900481019282610a945760008555610adb565b82601f10610aad57805160ff1916838001178555610adb565b82800160010185558215610adb579182015b82811115610ada578251825591602001919060010190610abf565b5b509050610ae89190610aec565b5090565b5b80821115610b05576000816000905550600101610aed565b5090565b6000819050919050565b610b1c81610b09565b82525050565b6000602082019050610b376000830184610b13565b92915050565b600081519050919050565b600082825260208201905092915050565b60005b83811015610b77578082015181840152602081019050610b5c565b83811115610b86576000848401525b50505050565b6000601f19601f8301169050919050565b6000610ba882610b3d565b610bb28185610b48565b9350610bc2818560208601610b59565b610bcb81610b8c565b840191505092915050565b60006020820190508181036000830152610bf08184610b9d565b905092915050565b6000604051905090565b600080fd5b600080fd5b610c1581610b09565b8114610c2057600080fd5b50565b600081359050610c3281610c0c565b92915050565b600060208284031215610c4e57610c4d610c02565b5b6000610c5c84828501610c23565b91505092915050565b60006080820190508181036000830152610c7f8187610b9d565b9050610c8e6020830186610b13565b610c9b6040830185610b13565b8181036060830152610cad8184610b9d565b905095945050505050565b600080fd5b600080fd5b7f4e487b7100000000000000000000000000000000000000000000000000000000600052604160045260246000fd5b610cfa82610b8c565b810181811067ffffffffffffffff82111715610d1957610d18610cc2565b5b80604052505050565b6000610d2c610bf8565b9050610d388282610cf1565b919050565b600067ffffffffffffffff821115610d5857610d57610cc2565b5b610d6182610b8c565b9050602081019050919050565b82818337600083830152505050565b6000610d90610d8b84610d3d565b610d22565b905082815260208101848484011115610dac57610dab610cbd565b5b610db7848285610d6e565b509392505050565b600082601f830112610dd457610dd3610cb8565b5b8135610de4848260208601610d7d565b91505092915050565b60008060408385031215610e0457610e03610c02565b5b6000610e1285828601610c23565b925050602083013567ffffffffffffffff811115610e3357610e32610c07565b5b610e3f85828601610dbf565b9150509250929050565b600080600060608486031215610e6257610e61610c02565b5b600084013567ffffffffffffffff811115610e8057610e7f610c07565b5b610e8c86828701610dbf565b9350506020610e9d86828701610c23565b925050604084013567ffffffffffffffff811115610ebe57610ebd610c07565b5b610eca86828701610dbf565b9150509250925092565b6000606082019050610ee96000830186610b13565b610ef66020830185610b13565b8181036040830152610f088184610b9d565b9050949350505050565b7f4e487b7100000000000000000000000000000000000000000000000000000000600052602260045260246000fd5b60006002820490506001821680610f5957607f821691505b602082108103610f6c57610f6b610f12565b5b50919050565b7f4e487b7100000000000000000000000000000000000000000000000000000000600052603260045260246000fd5b7f4e487b7100000000000000000000000000000000000000000000000000000000600052601160045260246000fd5b6000610fdb82610b09565b9150610fe683610b09565b9250827fffffffffffffffffffffffffffffffffffffffffffffffffffffffffffffffff0382111561101b5761101a610fa1565b5b82820190509291505056fea264697066735822122036b57bca20d363e91c12422fbb92d7057ba83568be33c88eb1eed85305a578e364736f6c634300080d0033","opcodes":"PUSH1 0x80 PUSH1 0x40 MSTORE CALLVALUE DUP1 ISZERO PUSH3 0x11 JUMPI PUSH1 0x0 DUP1 REVERT JUMPDEST POP PUSH1 0x40 MLOAD PUSH3 0x1461 CODESIZE SUB DUP1 PUSH3 0x1461 DUP4 CODECOPY DUP2 DUP2 ADD PUSH1 0x40 MSTORE DUP2 ADD SWAP1 PUSH3 0x37 SWAP2 SWAP1 PUSH3 0x2D8 JUMP JUMPDEST DUP3 PUSH1 0x0 SWAP1 DUP1 MLOAD SWAP1 PUSH1 0x20 ADD SWAP1 PUSH3 0x4F SWAP3 SWAP2 SWAP1 PUSH3 0x8B JUMP JUMPDEST POP DUP2 PUSH1 0x1 SWAP1 DUP1 MLOAD SWAP1 PUSH1 0x20 ADD SWAP1 PUSH3 0x68 SWAP3 SWAP2 SWAP1 PUSH3 0x8B JUMP JUMPDEST POP DUP1 PUSH1 0x2 SWAP1 DUP1 MLOAD SWAP1 PUSH1 0x20 ADD SWAP1 PUSH3 0x81 SWAP3 SWAP2 SWAP1 PUSH3 0x8B JUMP JUMPDEST POP POP POP POP PUSH3 0x3F5 JUMP JUMPDEST DUP3 DUP1 SLOAD PUSH3 0x99 SWAP1 PUSH3 0x3C0 JUMP JUMPDEST SWAP1 PUSH1 0x0 MSTORE PUSH1 0x20 PUSH1 0x0 KECCAK256 SWAP1 PUSH1 0x1F ADD PUSH1 0x20 SWAP1 DIV DUP2 ADD SWAP3 DUP3 PUSH3 0xBD JUMPI PUSH1 0x0 DUP6 SSTORE PUSH3 0x109 JUMP JUMPDEST DUP3 PUSH1 0x1F LT PUSH3 0xD8 JUMPI DUP1 MLOAD PUSH1 0xFF NOT AND DUP4 DUP1 ADD OR DUP6 SSTORE PUSH3 0x109 JUMP JUMPDEST DUP3 DUP1 ADD PUSH1 0x1 ADD DUP6 SSTORE DUP3 ISZERO PUSH3 0x109 JUMPI SWAP2 DUP3 ADD JUMPDEST DUP3 DUP2 GT ISZERO PUSH3 0x108 JUMPI DUP3 MLOAD DUP3 SSTORE SWAP2 PUSH1 0x20 ADD SWAP2 SWAP1 PUSH1 0x1 ADD SWAP1 PUSH3 0xEB JUMP JUMPDEST JUMPDEST POP SWAP1 POP PUSH3 0x118 SWAP2 SWAP1 PUSH3 0x11C JUMP JUMPDEST POP SWAP1 JUMP JUMPDEST JUMPDEST DUP1 DUP3 GT ISZERO PUSH3 0x137 JUMPI PUSH1 0x0 DUP2 PUSH1 0x0 SWAP1 SSTORE POP PUSH1 0x1 ADD PUSH3 0x11D JUMP JUMPDEST POP SWAP1 JUMP JUMPDEST PUSH1 0x0 PUSH1 0x40 MLOAD SWAP1 POP SWAP1 JUMP JUMPDEST PUSH1 0x0 DUP1 REVERT JUMPDEST PUSH1 0x0 DUP1 REVERT JUMPDEST PUSH1 0x0 DUP1 REVERT JUMPDEST PUSH1 0x0 DUP1 REVERT JUMPDEST PUSH1 0x0 PUSH1 0x1F NOT PUSH1 0x1F DUP4 ADD AND SWAP1 POP SWAP2 SWAP1 POP JUMP JUMPDEST PUSH32 0x4E487B7100000000000000000000000000000000000000000000000000000000 PUSH1 0x0 MSTORE PUSH1 0x41 PUSH1 0x4 MSTORE PUSH1 0x24 PUSH1 0x0 REVERT JUMPDEST PUSH3 0x1A4 DUP3 PUSH3 0x159 JUMP JUMPDEST DUP2 ADD DUP2 DUP2 LT PUSH8 0xFFFFFFFFFFFFFFFF DUP3 GT OR ISZERO PUSH3 0x1C6 JUMPI PUSH3 0x1C5 PUSH3 0x16A JUMP JUMPDEST JUMPDEST DUP1 PUSH1 0x40 MSTORE POP POP POP JUMP JUMPDEST PUSH1 0x0 PUSH3 0x1DB PUSH3 0x13B JUMP JUMPDEST SWAP1 POP PUSH3 0x1E9 DUP3 DUP3 PUSH3 0x199 JUMP JUMPDEST SWAP2 SWAP1 POP JUMP JUMPDEST PUSH1 0x0 PUSH8 0xFFFFFFFFFFFFFFFF DUP3 GT ISZERO PUSH3 0x20C JUMPI PUSH3 0x20B PUSH3 0x16A JUMP JUMPDEST JUMPDEST PUSH3 0x217 DUP3 PUSH3 0x159 JUMP JUMPDEST SWAP1 POP PUSH1 0x20 DUP2 ADD SWAP1 POP SWAP2 SWAP1 POP JUMP JUMPDEST PUSH1 0x0 JUMPDEST DUP4 DUP2 LT ISZERO PUSH3 0x244 JUMPI DUP1 DUP3 ADD MLOAD DUP2 DUP5 ADD MSTORE PUSH1 0x20 DUP2 ADD SWAP1 POP PUSH3 0x227 JUMP JUMPDEST DUP4 DUP2 GT ISZERO PUSH3 0x254 JUMPI PUSH1 0x0 DUP5 DUP5 ADD MSTORE JUMPDEST POP POP POP POP JUMP JUMPDEST PUSH1 0x0 PUSH3 0x271 PUSH3 0x26B DUP5 PUSH3 0x1EE JUMP JUMPDEST PUSH3 0x1CF JUMP JUMPDEST SWAP1 POP DUP3 DUP2 MSTORE PUSH1 0x20 DUP2 ADD DUP5 DUP5 DUP5 ADD GT ISZERO PUSH3 0x290 JUMPI PUSH3 0x28F PUSH3 0x154 JUMP JUMPDEST JUMPDEST PUSH3 0x29D DUP5 DUP3 DUP6 PUSH3 0x224 JUMP JUMPDEST POP SWAP4 SWAP3 POP POP POP JUMP JUMPDEST PUSH1 0x0 DUP3 PUSH1 0x1F DUP4 ADD SLT PUSH3 0x2BD JUMPI PUSH3 0x2BC PUSH3 0x14F JUMP JUMPDEST JUMPDEST DUP2 MLOAD PUSH3 0x2CF DUP5 DUP3 PUSH1 0x20 DUP7 ADD PUSH3 0x25A JUMP JUMPDEST SWAP2 POP POP SWAP3 SWAP2 POP POP JUMP JUMPDEST PUSH1 0x0 DUP1 PUSH1 0x0 PUSH1 0x60 DUP5 DUP7 SUB SLT ISZERO PUSH3 0x2F4 JUMPI PUSH3 0x2F3 PUSH3 0x145 JUMP JUMPDEST JUMPDEST PUSH1 0x0 DUP5 ADD MLOAD PUSH8 0xFFFFFFFFFFFFFFFF DUP2 GT ISZERO PUSH3 0x315 JUMPI PUSH3 0x314 PUSH3 0x14A JUMP JUMPDEST JUMPDEST PUSH3 0x323 DUP7 DUP3 DUP8 ADD PUSH3 0x2A5 JUMP JUMPDEST SWAP4 POP POP PUSH1 0x20 DUP5 ADD MLOAD PUSH8 0xFFFFFFFFFFFFFFFF DUP2 GT ISZERO PUSH3 0x347 JUMPI PUSH3 0x346 PUSH3 0x14A JUMP JUMPDEST JUMPDEST PUSH3 0x355 DUP7 DUP3 DUP8 ADD PUSH3 0x2A5 JUMP JUMPDEST SWAP3 POP POP PUSH1 0x40 DUP5 ADD MLOAD PUSH8 0xFFFFFFFFFFFFFFFF DUP2 GT ISZERO PUSH3 0x379 JUMPI PUSH3 0x378 PUSH3 0x14A JUMP JUMPDEST JUMPDEST PUSH3 0x387 DUP7 DUP3 DUP8 ADD PUSH3 0x2A5 JUMP JUMPDEST SWAP2 POP POP SWAP3 POP SWAP3 POP SWAP3 JUMP JUMPDEST PUSH32 0x4E487B7100000000000000000000000000000000000000000000000000000000 PUSH1 0x0 MSTORE PUSH1 0x22 PUSH1 0x4 MSTORE PUSH1 0x24 PUSH1 0x0 REVERT JUMPDEST PUSH1 0x0 PUSH1 0x2 DUP3 DIV SWAP1 POP PUSH1 0x1 DUP3 AND DUP1 PUSH3 0x3D9 JUMPI PUSH1 0x7F DUP3 AND SWAP2 POP JUMPDEST PUSH1 0x20 DUP3 LT DUP2 SUB PUSH3 0x3EF JUMPI PUSH3 0x3EE PUSH3 0x391 JUMP JUMPDEST JUMPDEST POP SWAP2 SWAP1 POP JUMP JUMPDEST PUSH2 0x105C DUP1 PUSH3 0x405 PUSH1 0x0 CODECOPY PUSH1 0x0 RETURN INVALID PUSH1 0x80 PUSH1 0x40 MSTORE CALLVALUE DUP1 ISZERO PUSH2 0x10 JUMPI PUSH1 0x0 DUP1 REVERT JUMPDEST POP PUSH1 0x4 CALLDATASIZE LT PUSH2 0xCE JUMPI PUSH1 0x0 CALLDATALOAD PUSH1 0xE0 SHR DUP1 PUSH4 0xD6695C9B GT PUSH2 0x8C JUMPI DUP1 PUSH4 0xEF07A81F GT PUSH2 0x66 JUMPI DUP1 PUSH4 0xEF07A81F EQ PUSH2 0x207 JUMPI DUP1 PUSH4 0xEF430AA6 EQ PUSH2 0x239 JUMPI DUP1 PUSH4 0xF8626AF8 EQ PUSH2 0x257 JUMPI DUP1 PUSH4 0xFB346EAB EQ PUSH2 0x289 JUMPI PUSH2 0xCE JUMP JUMPDEST DUP1 PUSH4 0xD6695C9B EQ PUSH2 0x1B1 JUMPI DUP1 PUSH4 0xE1A50AAF EQ PUSH2 0x1CD JUMPI DUP1 PUSH4 0xE55A62A8 EQ PUSH2 0x1E9 JUMPI PUSH2 0xCE JUMP JUMPDEST DUP1 PUSH3 0xB37044 EQ PUSH2 0xD3 JUMPI DUP1 PUSH4 0x3C4101FB EQ PUSH2 0xF1 JUMPI DUP1 PUSH4 0x4A79D50C EQ PUSH2 0x10F JUMPI DUP1 PUSH4 0x656A42BE EQ PUSH2 0x12D JUMPI DUP1 PUSH4 0xB5285D83 EQ PUSH2 0x14B JUMPI DUP1 PUSH4 0xC4257BEB EQ PUSH2 0x17E JUMPI JUMPDEST PUSH1 0x0 DUP1 REVERT JUMPDEST PUSH2 0xDB PUSH2 0x2A7 JUMP JUMPDEST PUSH1 0x40 MLOAD PUSH2 0xE8 SWAP2 SWAP1 PUSH2 0xB22 JUMP JUMPDEST PUSH1 0x40 MLOAD DUP1 SWAP2 SUB SWAP1 RETURN JUMPDEST PUSH2 0xF9 PUSH2 0x2AD JUMP JUMPDEST PUSH1 0x40 MLOAD PUSH2 0x106 SWAP2 SWAP1 PUSH2 0xBD6 JUMP JUMPDEST PUSH1 0x40 MLOAD DUP1 SWAP2 SUB SWAP1 RETURN JUMPDEST PUSH2 0x117 PUSH2 0x33B JUMP JUMPDEST PUSH1 0x40 MLOAD PUSH2 0x124 SWAP2 SWAP1 PUSH2 0xBD6 JUMP JUMPDEST PUSH1 0x40 MLOAD DUP1 SWAP2 SUB SWAP1 RETURN JUMPDEST PUSH2 0x135 PUSH2 0x3C9 JUMP JUMPDEST PUSH1 0x40 MLOAD PUSH2 0x142 SWAP2 SWAP1 PUSH2 0xB22 JUMP JUMPDEST PUSH1 0x40 MLOAD DUP1 SWAP2 SUB SWAP1 RETURN JUMPDEST PUSH2 0x165 PUSH1 0x4 DUP1 CALLDATASIZE SUB DUP2 ADD SWAP1 PUSH2 0x160 SWAP2 SWAP1 PUSH2 0xC38 JUMP JUMPDEST PUSH2 0x3D6 JUMP JUMPDEST PUSH1 0x40 MLOAD PUSH2 0x175 SWAP5 SWAP4 SWAP3 SWAP2 SWAP1 PUSH2 0xC65 JUMP JUMPDEST PUSH1 0x40 MLOAD DUP1 SWAP2 SUB SWAP1 RETURN JUMPDEST PUSH2 0x198 PUSH1 0x4 DUP1 CALLDATASIZE SUB DUP2 ADD SWAP1 PUSH2 0x193 SWAP2 SWAP1 PUSH2 0xC38 JUMP JUMPDEST PUSH2 0x526 JUMP JUMPDEST PUSH1 0x40 MLOAD PUSH2 0x1A8 SWAP5 SWAP4 SWAP3 SWAP2 SWAP1 PUSH2 0xC65 JUMP JUMPDEST PUSH1 0x40 MLOAD DUP1 SWAP2 SUB SWAP1 RETURN JUMPDEST PUSH2 0x1CB PUSH1 0x4 DUP1 CALLDATASIZE SUB DUP2 ADD SWAP1 PUSH2 0x1C6 SWAP2 SWAP1 PUSH2 0xDED JUMP JUMPDEST PUSH2 0x6BA JUMP JUMPDEST STOP JUMPDEST PUSH2 0x1E7 PUSH1 0x4 DUP1 CALLDATASIZE SUB DUP2 ADD SWAP1 PUSH2 0x1E2 SWAP2 SWAP1 PUSH2 0xE49 JUMP JUMPDEST PUSH2 0x750 JUMP JUMPDEST STOP JUMPDEST PUSH2 0x1F1 PUSH2 0x80A JUMP JUMPDEST PUSH1 0x40 MLOAD PUSH2 0x1FE SWAP2 SWAP1 PUSH2 0xB22 JUMP JUMPDEST PUSH1 0x40 MLOAD DUP1 SWAP2 SUB SWAP1 RETURN JUMPDEST PUSH2 0x221 PUSH1 0x4 DUP1 CALLDATASIZE SUB DUP2 ADD SWAP1 PUSH2 0x21C SWAP2 SWAP1 PUSH2 0xC38 JUMP JUMPDEST PUSH2 0x817 JUMP JUMPDEST PUSH1 0x40 MLOAD PUSH2 0x230 SWAP4 SWAP3 SWAP2 SWAP1 PUSH2 0xED4 JUMP JUMPDEST PUSH1 0x40 MLOAD DUP1 SWAP2 SUB SWAP1 RETURN JUMPDEST PUSH2 0x241 PUSH2 0x910 JUMP JUMPDEST PUSH1 0x40 MLOAD PUSH2 0x24E SWAP2 SWAP1 PUSH2 0xBD6 JUMP JUMPDEST PUSH1 0x40 MLOAD DUP1 SWAP2 SUB SWAP1 RETURN JUMPDEST PUSH2 0x271 PUSH1 0x4 DUP1 CALLDATASIZE SUB DUP2 ADD SWAP1 PUSH2 0x26C SWAP2 SWAP1 PUSH2 0xC38 JUMP JUMPDEST PUSH2 0x99E JUMP JUMPDEST PUSH1 0x40 MLOAD PUSH2 0x280 SWAP4 SWAP3 SWAP2 SWAP1 PUSH2 0xED4 JUMP JUMPDEST PUSH1 0x40 MLOAD DUP1 SWAP2 SUB SWAP1 RETURN JUMPDEST PUSH2 0x291 PUSH2 0xA60 JUMP JUMPDEST PUSH1 0x40 MLOAD PUSH2 0x29E SWAP2 SWAP1 PUSH2 0xB22 JUMP JUMPDEST PUSH1 0x40 MLOAD DUP1 SWAP2 SUB SWAP1 RETURN JUMPDEST PUSH1 0x5 SLOAD DUP2 JUMP JUMPDEST PUSH1 0x2 DUP1 SLOAD PUSH2 0x2BA SWAP1 PUSH2 0xF41 JUMP JUMPDEST DUP1 PUSH1 0x1F ADD PUSH1 0x20 DUP1 SWAP2 DIV MUL PUSH1 0x20 ADD PUSH1 0x40 MLOAD SWAP1 DUP2 ADD PUSH1 0x40 MSTORE DUP1 SWAP3 SWAP2 SWAP1 DUP2 DUP2 MSTORE PUSH1 0x20 ADD DUP3 DUP1 SLOAD PUSH2 0x2E6 SWAP1 PUSH2 0xF41 JUMP JUMPDEST DUP1 ISZERO PUSH2 0x333 JUMPI DUP1 PUSH1 0x1F LT PUSH2 0x308 JUMPI PUSH2 0x100 DUP1 DUP4 SLOAD DIV MUL DUP4 MSTORE SWAP2 PUSH1 0x20 ADD SWAP2 PUSH2 0x333 JUMP JUMPDEST DUP3 ADD SWAP2 SWAP1 PUSH1 0x0 MSTORE PUSH1 0x20 PUSH1 0x0 KECCAK256 SWAP1 JUMPDEST DUP2 SLOAD DUP2 MSTORE SWAP1 PUSH1 0x1 ADD SWAP1 PUSH1 0x20 ADD DUP1 DUP4 GT PUSH2 0x316 JUMPI DUP3 SWAP1 SUB PUSH1 0x1F AND DUP3 ADD SWAP2 JUMPDEST POP POP POP POP POP DUP2 JUMP JUMPDEST PUSH1 0x0 DUP1 SLOAD PUSH2 0x348 SWAP1 PUSH2 0xF41 JUMP JUMPDEST DUP1 PUSH1 0x1F ADD PUSH1 0x20 DUP1 SWAP2 DIV MUL PUSH1 0x20 ADD PUSH1 0x40 MLOAD SWAP1 DUP2 ADD PUSH1 0x40 MSTORE DUP1 SWAP3 SWAP2 SWAP1 DUP2 DUP2 MSTORE PUSH1 0x20 ADD DUP3 DUP1 SLOAD PUSH2 0x374 SWAP1 PUSH2 0xF41 JUMP JUMPDEST DUP1 ISZERO PUSH2 0x3C1 JUMPI DUP1 PUSH1 0x1F LT PUSH2 0x396 JUMPI PUSH2 0x100 DUP1 DUP4 SLOAD DIV MUL DUP4 MSTORE SWAP2 PUSH1 0x20 ADD SWAP2 PUSH2 0x3C1 JUMP JUMPDEST DUP3 ADD SWAP2 SWAP1 PUSH1 0x0 MSTORE PUSH1 0x20 PUSH1 0x0 KECCAK256 SWAP1 JUMPDEST DUP2 SLOAD DUP2 MSTORE SWAP1 PUSH1 0x1 ADD SWAP1 PUSH1 0x20 ADD DUP1 DUP4 GT PUSH2 0x3A4 JUMPI DUP3 SWAP1 SUB PUSH1 0x1F AND DUP3 ADD SWAP2 JUMPDEST POP POP POP POP POP DUP2 JUMP JUMPDEST PUSH1 0x0 PUSH1 0x4 DUP1 SLOAD SWAP1 POP SWAP1 POP SWAP1 JUMP JUMPDEST PUSH1 0x4 DUP2 DUP2 SLOAD DUP2 LT PUSH2 0x3E6 JUMPI PUSH1 0x0 DUP1 REVERT JUMPDEST SWAP1 PUSH1 0x0 MSTORE PUSH1 0x20 PUSH1 0x0 KECCAK256 SWAP1 PUSH1 0x4 MUL ADD PUSH1 0x0 SWAP2 POP SWAP1 POP DUP1 PUSH1 0x0 ADD DUP1 SLOAD PUSH2 0x409 SWAP1 PUSH2 0xF41 JUMP JUMPDEST DUP1 PUSH1 0x1F ADD PUSH1 0x20 DUP1 SWAP2 DIV MUL PUSH1 0x20 ADD PUSH1 0x40 MLOAD SWAP1 DUP2 ADD PUSH1 0x40 MSTORE DUP1 SWAP3 SWAP2 SWAP1 DUP2 DUP2 MSTORE PUSH1 0x20 ADD DUP3 DUP1 SLOAD PUSH2 0x435 SWAP1 PUSH2 0xF41 JUMP JUMPDEST DUP1 ISZERO PUSH2 0x482 JUMPI DUP1 PUSH1 0x1F LT PUSH2 0x457 JUMPI PUSH2 0x100 DUP1 DUP4 SLOAD DIV MUL DUP4 MSTORE SWAP2 PUSH1 0x20 ADD SWAP2 PUSH2 0x482 JUMP JUMPDEST DUP3 ADD SWAP2 SWAP1 PUSH1 0x0 MSTORE PUSH1 0x20 PUSH1 0x0 KECCAK256 SWAP1 JUMPDEST DUP2 SLOAD DUP2 MSTORE SWAP1 PUSH1 0x1 ADD SWAP1 PUSH1 0x20 ADD DUP1 DUP4 GT PUSH2 0x465 JUMPI DUP3 SWAP1 SUB PUSH1 0x1F AND DUP3 ADD SWAP2 JUMPDEST POP POP POP POP POP SWAP1 DUP1 PUSH1 0x1 ADD SLOAD SWAP1 DUP1 PUSH1 0x2 ADD SLOAD SWAP1 DUP1 PUSH1 0x3 ADD DUP1 SLOAD PUSH2 0x4A3 SWAP1 PUSH2 0xF41 JUMP JUMPDEST DUP1 PUSH1 0x1F ADD PUSH1 0x20 DUP1 SWAP2 DIV MUL PUSH1 0x20 ADD PUSH1 0x40 MLOAD SWAP1 DUP2 ADD PUSH1 0x40 MSTORE DUP1 SWAP3 SWAP2 SWAP1 DUP2 DUP2 MSTORE PUSH1 0x20 ADD DUP3 DUP1 SLOAD PUSH2 0x4CF SWAP1 PUSH2 0xF41 JUMP JUMPDEST DUP1 ISZERO PUSH2 0x51C JUMPI DUP1 PUSH1 0x1F LT PUSH2 0x4F1 JUMPI PUSH2 0x100 DUP1 DUP4 SLOAD DIV MUL DUP4 MSTORE SWAP2 PUSH1 0x20 ADD SWAP2 PUSH2 0x51C JUMP JUMPDEST DUP3 ADD SWAP2 SWAP1 PUSH1 0x0 MSTORE PUSH1 0x20 PUSH1 0x0 KECCAK256 SWAP1 JUMPDEST DUP2 SLOAD DUP2 MSTORE SWAP1 PUSH1 0x1 ADD SWAP1 PUSH1 0x20 ADD DUP1 DUP4 GT PUSH2 0x4FF JUMPI DUP3 SWAP1 SUB PUSH1 0x1F AND DUP3 ADD SWAP2 JUMPDEST POP POP POP POP POP SWAP1 POP DUP5 JUMP JUMPDEST PUSH1 0x60 PUSH1 0x0 DUP1 PUSH1 0x60 PUSH1 0x0 PUSH1 0x4 DUP7 DUP2 SLOAD DUP2 LT PUSH2 0x543 JUMPI PUSH2 0x542 PUSH2 0xF72 JUMP JUMPDEST JUMPDEST SWAP1 PUSH1 0x0 MSTORE PUSH1 0x20 PUSH1 0x0 KECCAK256 SWAP1 PUSH1 0x4 MUL ADD PUSH1 0x40 MLOAD DUP1 PUSH1 0x80 ADD PUSH1 0x40 MSTORE SWAP1 DUP2 PUSH1 0x0 DUP3 ADD DUP1 SLOAD PUSH2 0x56C SWAP1 PUSH2 0xF41 JUMP JUMPDEST DUP1 PUSH1 0x1F ADD PUSH1 0x20 DUP1 SWAP2 DIV MUL PUSH1 0x20 ADD PUSH1 0x40 MLOAD SWAP1 DUP2 ADD PUSH1 0x40 MSTORE DUP1 SWAP3 SWAP2 SWAP1 DUP2 DUP2 MSTORE PUSH1 0x20 ADD DUP3 DUP1 SLOAD PUSH2 0x598 SWAP1 PUSH2 0xF41 JUMP JUMPDEST DUP1 ISZERO PUSH2 0x5E5 JUMPI DUP1 PUSH1 0x1F LT PUSH2 0x5BA JUMPI PUSH2 0x100 DUP1 DUP4 SLOAD DIV MUL DUP4 MSTORE SWAP2 PUSH1 0x20 ADD SWAP2 PUSH2 0x5E5 JUMP JUMPDEST DUP3 ADD SWAP2 SWAP1 PUSH1 0x0 MSTORE PUSH1 0x20 PUSH1 0x0 KECCAK256 SWAP1 JUMPDEST DUP2 SLOAD DUP2 MSTORE SWAP1 PUSH1 0x1 ADD SWAP1 PUSH1 0x20 ADD DUP1 DUP4 GT PUSH2 0x5C8 JUMPI DUP3 SWAP1 SUB PUSH1 0x1F AND DUP3 ADD SWAP2 JUMPDEST POP POP POP POP POP DUP2 MSTORE PUSH1 0x20 ADD PUSH1 0x1 DUP3 ADD SLOAD DUP2 MSTORE PUSH1 0x20 ADD PUSH1 0x2 DUP3 ADD SLOAD DUP2 MSTORE PUSH1 0x20 ADD PUSH1 0x3 DUP3 ADD DUP1 SLOAD PUSH2 0x612 SWAP1 PUSH2 0xF41 JUMP JUMPDEST DUP1 PUSH1 0x1F ADD PUSH1 0x20 DUP1 SWAP2 DIV MUL PUSH1 0x20 ADD PUSH1 0x40 MLOAD SWAP1 DUP2 ADD PUSH1 0x40 MSTORE DUP1 SWAP3 SWAP2 SWAP1 DUP2 DUP2 MSTORE PUSH1 0x20 ADD DUP3 DUP1 SLOAD PUSH2 0x63E SWAP1 PUSH2 0xF41 JUMP JUMPDEST DUP1 ISZERO PUSH2 0x68B JUMPI DUP1 PUSH1 0x1F LT PUSH2 0x660 JUMPI PUSH2 0x100 DUP1 DUP4 SLOAD DIV MUL DUP4 MSTORE SWAP2 PUSH1 0x20 ADD SWAP2 PUSH2 0x68B JUMP JUMPDEST DUP3 ADD SWAP2 SWAP1 PUSH1 0x0 MSTORE PUSH1 0x20 PUSH1 0x0 KECCAK256 SWAP1 JUMPDEST DUP2 SLOAD DUP2 MSTORE SWAP1 PUSH1 0x1 ADD SWAP1 PUSH1 0x20 ADD DUP1 DUP4 GT PUSH2 0x66E JUMPI DUP3 SWAP1 SUB PUSH1 0x1F AND DUP3 ADD SWAP2 JUMPDEST POP POP POP POP POP DUP2 MSTORE POP POP SWAP1 POP DUP1 PUSH1 0x0 ADD MLOAD DUP2 PUSH1 0x20 ADD MLOAD DUP3 PUSH1 0x40 ADD MLOAD DUP4 PUSH1 0x60 ADD MLOAD SWAP5 POP SWAP5 POP SWAP5 POP SWAP5 POP POP SWAP2 SWAP4 POP SWAP2 SWAP4 JUMP JUMPDEST PUSH1 0x3 PUSH1 0x40 MLOAD DUP1 PUSH1 0x60 ADD PUSH1 0x40 MSTORE DUP1 DUP5 DUP2 MSTORE PUSH1 0x20 ADD TIMESTAMP DUP2 MSTORE PUSH1 0x20 ADD DUP4 DUP2 MSTORE POP SWAP1 DUP1 PUSH1 0x1 DUP2 SLOAD ADD DUP1 DUP3 SSTORE DUP1 SWAP2 POP POP PUSH1 0x1 SWAP1 SUB SWAP1 PUSH1 0x0 MSTORE PUSH1 0x20 PUSH1 0x0 KECCAK256 SWAP1 PUSH1 0x3 MUL ADD PUSH1 0x0 SWAP1 SWAP2 SWAP1 SWAP2 SWAP1 SWAP2 POP PUSH1 0x0 DUP3 ADD MLOAD DUP2 PUSH1 0x0 ADD SSTORE PUSH1 0x20 DUP3 ADD MLOAD DUP2 PUSH1 0x1 ADD SSTORE PUSH1 0x40 DUP3 ADD MLOAD DUP2 PUSH1 0x2 ADD SWAP1 DUP1 MLOAD SWAP1 PUSH1 0x20 ADD SWAP1 PUSH2 0x730 SWAP3 SWAP2 SWAP1 PUSH2 0xA66 JUMP JUMPDEST POP POP POP DUP2 PUSH1 0x5 PUSH1 0x0 DUP3 DUP3 SLOAD PUSH2 0x745 SWAP2 SWAP1 PUSH2 0xFD0 JUMP JUMPDEST SWAP3 POP POP DUP2 SWAP1 SSTORE POP POP POP JUMP JUMPDEST PUSH1 0x4 PUSH1 0x40 MLOAD DUP1 PUSH1 0x80 ADD PUSH1 0x40 MSTORE DUP1 DUP6 DUP2 MSTORE PUSH1 0x20 ADD DUP5 DUP2 MSTORE PUSH1 0x20 ADD TIMESTAMP DUP2 MSTORE PUSH1 0x20 ADD DUP4 DUP2 MSTORE POP SWAP1 DUP1 PUSH1 0x1 DUP2 SLOAD ADD DUP1 DUP3 SSTORE DUP1 SWAP2 POP POP PUSH1 0x1 SWAP1 SUB SWAP1 PUSH1 0x0 MSTORE PUSH1 0x20 PUSH1 0x0 KECCAK256 SWAP1 PUSH1 0x4 MUL ADD PUSH1 0x0 SWAP1 SWAP2 SWAP1 SWAP2 SWAP1 SWAP2 POP PUSH1 0x0 DUP3 ADD MLOAD DUP2 PUSH1 0x0 ADD SWAP1 DUP1 MLOAD SWAP1 PUSH1 0x20 ADD SWAP1 PUSH2 0x7B8 SWAP3 SWAP2 SWAP1 PUSH2 0xA66 JUMP JUMPDEST POP PUSH1 0x20 DUP3 ADD MLOAD DUP2 PUSH1 0x1 ADD SSTORE PUSH1 0x40 DUP3 ADD MLOAD DUP2 PUSH1 0x2 ADD SSTORE PUSH1 0x60 DUP3 ADD MLOAD DUP2 PUSH1 0x3 ADD SWAP1 DUP1 MLOAD SWAP1 PUSH1 0x20 ADD SWAP1 PUSH2 0x7E9 SWAP3 SWAP2 SWAP1 PUSH2 0xA66 JUMP JUMPDEST POP POP POP DUP2 PUSH1 0x6 PUSH1 0x0 DUP3 DUP3 SLOAD PUSH2 0x7FE SWAP2 SWAP1 PUSH2 0xFD0 JUMP JUMPDEST SWAP3 POP POP DUP2 SWAP1 SSTORE POP POP POP POP JUMP JUMPDEST PUSH1 0x0 PUSH1 0x3 DUP1 SLOAD SWAP1 POP SWAP1 POP SWAP1 JUMP JUMPDEST PUSH1 0x0 DUP1 PUSH1 0x60 PUSH1 0x0 PUSH1 0x3 DUP6 DUP2 SLOAD DUP2 LT PUSH2 0x832 JUMPI PUSH2 0x831 PUSH2 0xF72 JUMP JUMPDEST JUMPDEST SWAP1 PUSH1 0x0 MSTORE PUSH1 0x20 PUSH1 0x0 KECCAK256 SWAP1 PUSH1 0x3 MUL ADD PUSH1 0x40 MLOAD DUP1 PUSH1 0x60 ADD PUSH1 0x40 MSTORE SWAP1 DUP2 PUSH1 0x0 DUP3 ADD SLOAD DUP2 MSTORE PUSH1 0x20 ADD PUSH1 0x1 DUP3 ADD SLOAD DUP2 MSTORE PUSH1 0x20 ADD PUSH1 0x2 DUP3 ADD DUP1 SLOAD PUSH2 0x86F SWAP1 PUSH2 0xF41 JUMP JUMPDEST DUP1 PUSH1 0x1F ADD PUSH1 0x20 DUP1 SWAP2 DIV MUL PUSH1 0x20 ADD PUSH1 0x40 MLOAD SWAP1 DUP2 ADD PUSH1 0x40 MSTORE DUP1 SWAP3 SWAP2 SWAP1 DUP2 DUP2 MSTORE PUSH1 0x20 ADD DUP3 DUP1 SLOAD PUSH2 0x89B SWAP1 PUSH2 0xF41 JUMP JUMPDEST DUP1 ISZERO PUSH2 0x8E8 JUMPI DUP1 PUSH1 0x1F LT PUSH2 0x8BD JUMPI PUSH2 0x100 DUP1 DUP4 SLOAD DIV MUL DUP4 MSTORE SWAP2 PUSH1 0x20 ADD SWAP2 PUSH2 0x8E8 JUMP JUMPDEST DUP3 ADD SWAP2 SWAP1 PUSH1 0x0 MSTORE PUSH1 0x20 PUSH1 0x0 KECCAK256 SWAP1 JUMPDEST DUP2 SLOAD DUP2 MSTORE SWAP1 PUSH1 0x1 ADD SWAP1 PUSH1 0x20 ADD DUP1 DUP4 GT PUSH2 0x8CB JUMPI DUP3 SWAP1 SUB PUSH1 0x1F AND DUP3 ADD SWAP2 JUMPDEST POP POP POP POP POP DUP2 MSTORE POP POP SWAP1 POP DUP1 PUSH1 0x0 ADD MLOAD DUP2 PUSH1 0x20 ADD MLOAD DUP3 PUSH1 0x40 ADD MLOAD SWAP4 POP SWAP4 POP SWAP4 POP POP SWAP2 SWAP4 SWAP1 SWAP3 POP JUMP JUMPDEST PUSH1 0x1 DUP1 SLOAD PUSH2 0x91D SWAP1 PUSH2 0xF41 JUMP JUMPDEST DUP1 PUSH1 0x1F ADD PUSH1 0x20 DUP1 SWAP2 DIV MUL PUSH1 0x20 ADD PUSH1 0x40 MLOAD SWAP1 DUP2 ADD PUSH1 0x40 MSTORE DUP1 SWAP3 SWAP2 SWAP1 DUP2 DUP2 MSTORE PUSH1 0x20 ADD DUP3 DUP1 SLOAD PUSH2 0x949 SWAP1 PUSH2 0xF41 JUMP JUMPDEST DUP1 ISZERO PUSH2 0x996 JUMPI DUP1 PUSH1 0x1F LT PUSH2 0x96B JUMPI PUSH2 0x100 DUP1 DUP4 SLOAD DIV MUL DUP4 MSTORE SWAP2 PUSH1 0x20 ADD SWAP2 PUSH2 0x996 JUMP JUMPDEST DUP3 ADD SWAP2 SWAP1 PUSH1 0x0 MSTORE PUSH1 0x20 PUSH1 0x0 KECCAK256 SWAP1 JUMPDEST DUP2 SLOAD DUP2 MSTORE SWAP1 PUSH1 0x1 ADD SWAP1 PUSH1 0x20 ADD DUP1 DUP4 GT PUSH2 0x979 JUMPI DUP3 SWAP1 SUB PUSH1 0x1F AND DUP3 ADD SWAP2 JUMPDEST POP POP POP POP POP DUP2 JUMP JUMPDEST PUSH1 0x3 DUP2 DUP2 SLOAD DUP2 LT PUSH2 0x9AE JUMPI PUSH1 0x0 DUP1 REVERT JUMPDEST SWAP1 PUSH1 0x0 MSTORE PUSH1 0x20 PUSH1 0x0 KECCAK256 SWAP1 PUSH1 0x3 MUL ADD PUSH1 0x0 SWAP2 POP SWAP1 POP DUP1 PUSH1 0x0 ADD SLOAD SWAP1 DUP1 PUSH1 0x1 ADD SLOAD SWAP1 DUP1 PUSH1 0x2 ADD DUP1 SLOAD PUSH2 0x9DD SWAP1 PUSH2 0xF41 JUMP JUMPDEST DUP1 PUSH1 0x1F ADD PUSH1 0x20 DUP1 SWAP2 DIV MUL PUSH1 0x20 ADD PUSH1 0x40 MLOAD SWAP1 DUP2 ADD PUSH1 0x40 MSTORE DUP1 SWAP3 SWAP2 SWAP1 DUP2 DUP2 MSTORE PUSH1 0x20 ADD DUP3 DUP1 SLOAD PUSH2 0xA09 SWAP1 PUSH2 0xF41 JUMP JUMPDEST DUP1 ISZERO PUSH2 0xA56 JUMPI DUP1 PUSH1 0x1F LT PUSH2 0xA2B JUMPI PUSH2 0x100 DUP1 DUP4 SLOAD DIV MUL DUP4 MSTORE SWAP2 PUSH1 0x20 ADD SWAP2 PUSH2 0xA56 JUMP JUMPDEST DUP3 ADD SWAP2 SWAP1 PUSH1 0x0 MSTORE PUSH1 0x20 PUSH1 0x0 KECCAK256 SWAP1 JUMPDEST DUP2 SLOAD DUP2 MSTORE SWAP1 PUSH1 0x1 ADD SWAP1 PUSH1 0x20 ADD DUP1 DUP4 GT PUSH2 0xA39 JUMPI DUP3 SWAP1 SUB PUSH1 0x1F AND DUP3 ADD SWAP2 JUMPDEST POP POP POP POP POP SWAP1 POP DUP4 JUMP JUMPDEST PUSH1 0x6 SLOAD DUP2 JUMP JUMPDEST DUP3 DUP1 SLOAD PUSH2 0xA72 SWAP1 PUSH2 0xF41 JUMP JUMPDEST SWAP1 PUSH1 0x0 MSTORE PUSH1 0x20 PUSH1 0x0 KECCAK256 SWAP1 PUSH1 0x1F ADD PUSH1 0x20 SWAP1 DIV DUP2 ADD SWAP3 DUP3 PUSH2 0xA94 JUMPI PUSH1 0x0 DUP6 SSTORE PUSH2 0xADB JUMP JUMPDEST DUP3 PUSH1 0x1F LT PUSH2 0xAAD JUMPI DUP1 MLOAD PUSH1 0xFF NOT AND DUP4 DUP1 ADD OR DUP6 SSTORE PUSH2 0xADB JUMP JUMPDEST DUP3 DUP1 ADD PUSH1 0x1 ADD DUP6 SSTORE DUP3 ISZERO PUSH2 0xADB JUMPI SWAP2 DUP3 ADD JUMPDEST DUP3 DUP2 GT ISZERO PUSH2 0xADA JUMPI DUP3 MLOAD DUP3 SSTORE SWAP2 PUSH1 0x20 ADD SWAP2 SWAP1 PUSH1 0x1 ADD SWAP1 PUSH2 0xABF JUMP JUMPDEST JUMPDEST POP SWAP1 POP PUSH2 0xAE8 SWAP2 SWAP1 PUSH2 0xAEC JUMP JUMPDEST POP SWAP1 JUMP JUMPDEST JUMPDEST DUP1 DUP3 GT ISZERO PUSH2 0xB05 JUMPI PUSH1 0x0 DUP2 PUSH1 0x0 SWAP1 SSTORE POP PUSH1 0x1 ADD PUSH2 0xAED JUMP JUMPDEST POP SWAP1 JUMP JUMPDEST PUSH1 0x0 DUP2 SWAP1 POP SWAP2 SWAP1 POP JUMP JUMPDEST PUSH2 0xB1C DUP2 PUSH2 0xB09 JUMP JUMPDEST DUP3 MSTORE POP POP JUMP JUMPDEST PUSH1 0x0 PUSH1 0x20 DUP3 ADD SWAP1 POP PUSH2 0xB37 PUSH1 0x0 DUP4 ADD DUP5 PUSH2 0xB13 JUMP JUMPDEST SWAP3 SWAP2 POP POP JUMP JUMPDEST PUSH1 0x0 DUP2 MLOAD SWAP1 POP SWAP2 SWAP1 POP JUMP JUMPDEST PUSH1 0x0 DUP3 DUP3 MSTORE PUSH1 0x20 DUP3 ADD SWAP1 POP SWAP3 SWAP2 POP POP JUMP JUMPDEST PUSH1 0x0 JUMPDEST DUP4 DUP2 LT ISZERO PUSH2 0xB77 JUMPI DUP1 DUP3 ADD MLOAD DUP2 DUP5 ADD MSTORE PUSH1 0x20 DUP2 ADD SWAP1 POP PUSH2 0xB5C JUMP JUMPDEST DUP4 DUP2 GT ISZERO PUSH2 0xB86 JUMPI PUSH1 0x0 DUP5 DUP5 ADD MSTORE JUMPDEST POP POP POP POP JUMP JUMPDEST PUSH1 0x0 PUSH1 0x1F NOT PUSH1 0x1F DUP4 ADD AND SWAP1 POP SWAP2 SWAP1 POP JUMP JUMPDEST PUSH1 0x0 PUSH2 0xBA8 DUP3 PUSH2 0xB3D JUMP JUMPDEST PUSH2 0xBB2 DUP2 DUP6 PUSH2 0xB48 JUMP JUMPDEST SWAP4 POP PUSH2 0xBC2 DUP2 DUP6 PUSH1 0x20 DUP7 ADD PUSH2 0xB59 JUMP JUMPDEST PUSH2 0xBCB DUP2 PUSH2 0xB8C JUMP JUMPDEST DUP5 ADD SWAP2 POP POP SWAP3 SWAP2 POP POP JUMP JUMPDEST PUSH1 0x0 PUSH1 0x20 DUP3 ADD SWAP1 POP DUP2 DUP2 SUB PUSH1 0x0 DUP4 ADD MSTORE PUSH2 0xBF0 DUP2 DUP5 PUSH2 0xB9D JUMP JUMPDEST SWAP1 POP SWAP3 SWAP2 POP POP JUMP JUMPDEST PUSH1 0x0 PUSH1 0x40 MLOAD SWAP1 POP SWAP1 JUMP JUMPDEST PUSH1 0x0 DUP1 REVERT JUMPDEST PUSH1 0x0 DUP1 REVERT JUMPDEST PUSH2 0xC15 DUP2 PUSH2 0xB09 JUMP JUMPDEST DUP2 EQ PUSH2 0xC20 JUMPI PUSH1 0x0 DUP1 REVERT JUMPDEST POP JUMP JUMPDEST PUSH1 0x0 DUP2 CALLDATALOAD SWAP1 POP PUSH2 0xC32 DUP2 PUSH2 0xC0C JUMP JUMPDEST SWAP3 SWAP2 POP POP JUMP JUMPDEST PUSH1 0x0 PUSH1 0x20 DUP3 DUP5 SUB SLT ISZERO PUSH2 0xC4E JUMPI PUSH2 0xC4D PUSH2 0xC02 JUMP JUMPDEST JUMPDEST PUSH1 0x0 PUSH2 0xC5C DUP5 DUP3 DUP6 ADD PUSH2 0xC23 JUMP JUMPDEST SWAP2 POP POP SWAP3 SWAP2 POP POP JUMP JUMPDEST PUSH1 0x0 PUSH1 0x80 DUP3 ADD SWAP1 POP DUP2 DUP2 SUB PUSH1 0x0 DUP4 ADD MSTORE PUSH2 0xC7F DUP2 DUP8 PUSH2 0xB9D JUMP JUMPDEST SWAP1 POP PUSH2 0xC8E PUSH1 0x20 DUP4 ADD DUP7 PUSH2 0xB13 JUMP JUMPDEST PUSH2 0xC9B PUSH1 0x40 DUP4 ADD DUP6 PUSH2 0xB13 JUMP JUMPDEST DUP2 DUP2 SUB PUSH1 0x60 DUP4 ADD MSTORE PUSH2 0xCAD DUP2 DUP5 PUSH2 0xB9D JUMP JUMPDEST SWAP1 POP SWAP6 SWAP5 POP POP POP POP POP JUMP JUMPDEST PUSH1 0x0 DUP1 REVERT JUMPDEST PUSH1 0x0 DUP1 REVERT JUMPDEST PUSH32 0x4E487B7100000000000000000000000000000000000000000000000000000000 PUSH1 0x0 MSTORE PUSH1 0x41 PUSH1 0x4 MSTORE PUSH1 0x24 PUSH1 0x0 REVERT JUMPDEST PUSH2 0xCFA DUP3 PUSH2 0xB8C JUMP JUMPDEST DUP2 ADD DUP2 DUP2 LT PUSH8 0xFFFFFFFFFFFFFFFF DUP3 GT OR ISZERO PUSH2 0xD19 JUMPI PUSH2 0xD18 PUSH2 0xCC2 JUMP JUMPDEST JUMPDEST DUP1 PUSH1 0x40 MSTORE POP POP POP JUMP JUMPDEST PUSH1 0x0 PUSH2 0xD2C PUSH2 0xBF8 JUMP JUMPDEST SWAP1 POP PUSH2 0xD38 DUP3 DUP3 PUSH2 0xCF1 JUMP JUMPDEST SWAP2 SWAP1 POP JUMP JUMPDEST PUSH1 0x0 PUSH8 0xFFFFFFFFFFFFFFFF DUP3 GT ISZERO PUSH2 0xD58 JUMPI PUSH2 0xD57 PUSH2 0xCC2 JUMP JUMPDEST JUMPDEST PUSH2 0xD61 DUP3 PUSH2 0xB8C JUMP JUMPDEST SWAP1 POP PUSH1 0x20 DUP2 ADD SWAP1 POP SWAP2 SWAP1 POP JUMP JUMPDEST DUP3 DUP2 DUP4 CALLDATACOPY PUSH1 0x0 DUP4 DUP4 ADD MSTORE POP POP POP JUMP JUMPDEST PUSH1 0x0 PUSH2 0xD90 PUSH2 0xD8B DUP5 PUSH2 0xD3D JUMP JUMPDEST PUSH2 0xD22 JUMP JUMPDEST SWAP1 POP DUP3 DUP2 MSTORE PUSH1 0x20 DUP2 ADD DUP5 DUP5 DUP5 ADD GT ISZERO PUSH2 0xDAC JUMPI PUSH2 0xDAB PUSH2 0xCBD JUMP JUMPDEST JUMPDEST PUSH2 0xDB7 DUP5 DUP3 DUP6 PUSH2 0xD6E JUMP JUMPDEST POP SWAP4 SWAP3 POP POP POP JUMP JUMPDEST PUSH1 0x0 DUP3 PUSH1 0x1F DUP4 ADD SLT PUSH2 0xDD4 JUMPI PUSH2 0xDD3 PUSH2 0xCB8 JUMP JUMPDEST JUMPDEST DUP2 CALLDATALOAD PUSH2 0xDE4 DUP5 DUP3 PUSH1 0x20 DUP7 ADD PUSH2 0xD7D JUMP JUMPDEST SWAP2 POP POP SWAP3 SWAP2 POP POP JUMP JUMPDEST PUSH1 0x0 DUP1 PUSH1 0x40 DUP4 DUP6 SUB SLT ISZERO PUSH2 0xE04 JUMPI PUSH2 0xE03 PUSH2 0xC02 JUMP JUMPDEST JUMPDEST PUSH1 0x0 PUSH2 0xE12 DUP6 DUP3 DUP7 ADD PUSH2 0xC23 JUMP JUMPDEST SWAP3 POP POP PUSH1 0x20 DUP4 ADD CALLDATALOAD PUSH8 0xFFFFFFFFFFFFFFFF DUP2 GT ISZERO PUSH2 0xE33 JUMPI PUSH2 0xE32 PUSH2 0xC07 JUMP JUMPDEST JUMPDEST PUSH2 0xE3F DUP6 DUP3 DUP7 ADD PUSH2 0xDBF JUMP JUMPDEST SWAP2 POP POP SWAP3 POP SWAP3 SWAP1 POP JUMP JUMPDEST PUSH1 0x0 DUP1 PUSH1 0x0 PUSH1 0x60 DUP5 DUP7 SUB SLT ISZERO PUSH2 0xE62 JUMPI PUSH2 0xE61 PUSH2 0xC02 JUMP JUMPDEST JUMPDEST PUSH1 0x0 DUP5 ADD CALLDATALOAD PUSH8 0xFFFFFFFFFFFFFFFF DUP2 GT ISZERO PUSH2 0xE80 JUMPI PUSH2 0xE7F PUSH2 0xC07 JUMP JUMPDEST JUMPDEST PUSH2 0xE8C DUP7 DUP3 DUP8 ADD PUSH2 0xDBF JUMP JUMPDEST SWAP4 POP POP PUSH1 0x20 PUSH2 0xE9D DUP7 DUP3 DUP8 ADD PUSH2 0xC23 JUMP JUMPDEST SWAP3 POP POP PUSH1 0x40 DUP5 ADD CALLDATALOAD PUSH8 0xFFFFFFFFFFFFFFFF DUP2 GT ISZERO PUSH2 0xEBE JUMPI PUSH2 0xEBD PUSH2 0xC07 JUMP JUMPDEST JUMPDEST PUSH2 0xECA DUP7 DUP3 DUP8 ADD PUSH2 0xDBF JUMP JUMPDEST SWAP2 POP POP SWAP3 POP SWAP3 POP SWAP3 JUMP JUMPDEST PUSH1 0x0 PUSH1 0x60 DUP3 ADD SWAP1 POP PUSH2 0xEE9 PUSH1 0x0 DUP4 ADD DUP7 PUSH2 0xB13 JUMP JUMPDEST PUSH2 0xEF6 PUSH1 0x20 DUP4 ADD DUP6 PUSH2 0xB13 JUMP JUMPDEST DUP2 DUP2 SUB PUSH1 0x40 DUP4 ADD MSTORE PUSH2 0xF08 DUP2 DUP5 PUSH2 0xB9D JUMP JUMPDEST SWAP1 POP SWAP5 SWAP4 POP POP POP POP JUMP JUMPDEST PUSH32 0x4E487B7100000000000000000000000000000000000000000000000000000000 PUSH1 0x0 MSTORE PUSH1 0x22 PUSH1 0x4 MSTORE PUSH1 0x24 PUSH1 0x0 REVERT JUMPDEST PUSH1 0x0 PUSH1 0x2 DUP3 DIV SWAP1 POP PUSH1 0x1 DUP3 AND DUP1 PUSH2 0xF59 JUMPI PUSH1 0x7F DUP3 AND SWAP2 POP JUMPDEST PUSH1 0x20 DUP3 LT DUP2 SUB PUSH2 0xF6C JUMPI PUSH2 0xF6B PUSH2 0xF12 JUMP JUMPDEST JUMPDEST POP SWAP2 SWAP1 POP JUMP JUMPDEST PUSH32 0x4E487B7100000000000000000000000000000000000000000000000000000000 PUSH1 0x0 MSTORE PUSH1 0x32 PUSH1 0x4 MSTORE PUSH1 0x24 PUSH1 0x0 REVERT JUMPDEST PUSH32 0x4E487B7100000000000000000000000000000000000000000000000000000000 PUSH1 0x0 MSTORE PUSH1 0x11 PUSH1 0x4 MSTORE PUSH1 0x24 PUSH1 0x0 REVERT JUMPDEST PUSH1 0x0 PUSH2 0xFDB DUP3 PUSH2 0xB09 JUMP JUMPDEST SWAP2 POP PUSH2 0xFE6 DUP4 PUSH2 0xB09 JUMP JUMPDEST SWAP3 POP DUP3 PUSH32 0xFFFFFFFFFFFFFFFFFFFFFFFFFFFFFFFFFFFFFFFFFFFFFFFFFFFFFFFFFFFFFFFF SUB DUP3 GT ISZERO PUSH2 0x101B JUMPI PUSH2 0x101A PUSH2 0xFA1 JUMP JUMPDEST JUMPDEST DUP3 DUP3 ADD SWAP1 POP SWAP3 SWAP2 POP POP JUMP INVALID LOG2 PUSH5 0x6970667358 0x22 SLT KECCAK256 CALLDATASIZE 0xB5 PUSH28 0xCA20D363E91C12422FBB92D7057BA83568BE33C88EB1EED85305A578 0xE3 PUSH5 0x736F6C6343 STOP ADDMOD 0xD STOP CALLER "},"gasEstimates":{"creation":{"codeDepositCost":"837600","executionCost":"infinite","totalCost":"infinite"},"external":{"category()":"infinite","donations(uint256)":"infinite","getDonation(uint256)":"infinite","getDonationCount()":"2512","getSpending(uint256)":"infinite","getSpendingCount()":"2512","logSpending(string,uint256,string)":"infinite","organizerName()":"infinite","recordDonation(uint256,string)":"infinite","spendings(uint256)":"infinite","title()":"infinite","totalDonated()":"2430","totalSpent()":"2517"}},"methodIdentifiers":{"category()":"ef430aa6","donations(uint256)":"f8626af8","getDonation(uint256)":"ef07a81f","getDonationCount()":"e55a62a8","getSpending(uint256)":"c4257beb","getSpendingCount()":"656a42be","logSpending(string,uint256,string)":"e1a50aaf","organizerName()":"3c4101fb","recordDonation(uint256,string)":"d6695c9b","spendings(uint256)":"b5285d83","title()":"4a79d50c","totalDonated()":"00b37044","totalSpent()":"fb346eab"}},"storageLayout":{"storage":[{"astId":66,"contract":"Donation.sol:DonationCampaign","label":"title","offset":0,"slot":"0","type":"t_string_storage"},{"astId":68,"contract":"Donation.sol:DonationCampaign","label":"category","offset":0,"slot":"1","type":"t_string_storage"},{"astId":70,"contract":"Donation.sol:DonationCampaign","label":"organizerName","offset":0,"slot":"2","type":"t_string_storage"},{"astId":74,"contract":"Donation.sol:DonationCampaign","label":"donations","offset":0,"slot":"3","type":"t_array(t_struct(Donation)55_storage)dyn_storage"},{"astId":78,"contract":"Donation.sol:DonationCampaign","label":"spendings","offset":0,"slot":"4","type":"t_array(t_struct(Spending)64_storage)dyn_storage"},{"astId":80,"contract":"Donation.sol:DonationCampaign","label":"totalDonated","offset":0,"slot":"5","type":"t_uint256"},{"astId":82,"contract":"Donation.sol:DonationCampaign","label":"totalSpent","offset":0,"slot":"6","type":"t_uint256"}],"types":{"t_array(t_struct(Donation)55_storage)dyn_storage":{"base":"t_struct(Donation)55_storage","encoding":"dynamic_array","label":"struct DonationCampaign.Donation[]","numberOfBytes":"32"},"t_array(t_struct(Spending)64_storage)dyn_storage":{"base":"t_struct(Spending)64_storage","encoding":"dynamic_array","label":"struct DonationCampaign.Spending[]","numberOfBytes":"32"},"t_string_storage":{"encoding":"bytes","label":"string","numberOfBytes":"32"},"t_struct(Donation)55_storage":{"encoding":"inplace","label":"struct DonationCampaign.Donation","members":[{"astId":50,"contract":"Donation.sol:DonationCampaign","label":"amount","offset":0,"slot":"0","type":"t_uint256"},{"astId":52,"contract":"Donation.sol:DonationCampaign","label":"timestamp","offset":0,"slot":"1","type":"t_uint256"},{"astId":54,"contract":"Donation.sol:DonationCampaign","label":"purpose","offset":0,"slot":"2","type":"t_string_storage"}],"numberOfBytes":"96"},"t_struct(Spending)64_storage":{"encoding":"inplace","label":"struct DonationCampaign.Spending","members":[{"astId":57,"contract":"Donation.sol:DonationCampaign","label":"description","offset":0,"slot":"0","type":"t_string_storage"},{"astId":59,"contract":"Donation.sol:DonationCampaign","label":"amount","offset":0,"slot":"1","type":"t_uint256"},{"astId":61,"contract":"Donation.sol:DonationCampaign","label":"timestamp","offset":0,"slot":"2","type":"t_uint256"},{"astId":63,"contract":"Donation.sol:DonationCampaign","label":"receiptHash","offset":0,"slot":"3","type":"t_string_storage"}],"numberOfBytes":"128"},"t_uint256":{"encoding":"inplace","label":"uint256","numberOfBytes":"32"}}},"userdoc":{"kind":"user","methods":{"constructor":{"notice":"Initializes the campaign"},"logSpending(string,uint256,string)":{"notice":"Organizer records spending"},"recordDonation(uint256,string)":{"notice":"Backend records a donation (from traditional payment)"}},"version":1}}